:020000040000fa
:080000000002040000000000f2
:020000040000fa
:040008001c030000d5
:020000040000fa
:04000c001c030000d1
:020000040000fa
:040010001c030000cd
:020000040000fa
:040014001c030000c9
:020000040000fa
:040018001c030000c5
:020000040000fa
:04001c001c030000c1
:020000040000fa
:040020001c030000bd
:020000040000fa
:040024001c030000b9
:020000040000fa
:040028001c030000b5
:020000040000fa
:04002c00c802000006
:020000040000fa
:040030001c030000ad
:020000040000fa
:040034001c030000a9
:020000040000fa
:040038001c030000a5
:020000040000fa
:04003c001c030000a1
:020000040000fa
:040040001c0300009d
:020000040000fa
:040044001c03000099
:020000040000fa
:040048001c03000095
:020000040000fa
:04004c001c03000091
:020000040000fa
:040050001c0300008d
:020000040000fa
:040054001c03000089
:020000040000fa
:040058001c03000085
:020000040000fa
:04005c00e0020000be
:020000040000fa
:040060001c0300007d
:020000040000fa
:040064001c03000079
:020000040000fa
:040068001c03000075
:020000040000fa
:04006c001c03000071
:020000040000fa
:040070001c0300006d
:020000040000fa
:040074001c03000069
:020000040000fa
:040078001c03000065
:020000040000fa
:04007c001c03000061
:020000040000fa
:040080001c0300005d
:020000040000fa
:040084001c03000059
:020000040000fa
:040088001c03000055
:020000040000fa
:04008c001c03000051
:020000040000fa
:040090001c0300004d
:020000040000fa
:040094001c03000049
:020000040000fa
:040098001c03000045
:020000040000fa
:04009c001c03000041
:020000040000fa
:0400a0001c0300003d
:020000040000fa
:0400a4001c03000039
:020000040000fa
:0400a8001c03000035
:020000040000fa
:0400ac001c03000031
:020000040000fa
:0400b0001c0300002d
:020000040000fa
:0400b4001c03000029
:020000040000fa
:0400b8001c03000025
:020000040000fa
:0400bc001c03000021
:020000040000fa
:0400c0001c0300001d
:020000040000fa
:0400c4001c03000019
:020000040000fa
:0400c8001c03000015
:020000040000fa
:0400cc001c03000011
:020000040000fa
:0400d0001c0300000d
:020000040000fa
:0400d4001c03000009
:020000040000fa
:0400d8001c03000005
:020000040000fa
:0400dc001c03000001
:020000040000fa
:0400e0001c030000fd
:020000040000fa
:0400e4001c030000f9
:020000040000fa
:0400e8001c030000f5
:020000040000fa
:0400ec001c030000f1
:020000040000fa
:0400f0001c030000ed
:020000040000fa
:0400f4001c030000e9
:020000040000fa
:0400f8001c030000e5
:020000040000fa
:0400fc001c030000e1
:020000040000fa
:040100001c030000dc
:020000040000fa
:040104001c030000d8
:020000040000fa
:040108001c030000d4
:020000040000fa
:04010c001c030000d0
:020000040000fa
:040110001c030000cc
:020000040000fa
:040114001c030000c8
:020000040000fa
:040118001c030000c4
:020000040000fa
:04011c001c030000c0
:020000040000fa
:040120001c030000bc
:020000040000fa
:040124001c030000b8
:020000040000fa
:040128001c030000b4
:020000040000fa
:04012c001c030000b0
:020000040000fa
:040130001c030000ac
:020000040000fa
:040134001c030000a8
:020000040000fa
:040138001c030000a4
:020000040000fa
:04013c001c030000a0
:020000040000fa
:040140001c0300009c
:020000040000fa
:040144001c03000098
:020000040000fa
:040148001c03000094
:020000040000fa
:040208001c030000d3
:020000040000fa
:04020c001c030000cf
:020000040000fa
:040210001c030000cb
:020000040000fa
:040214001c030000c7
:020000040000fa
:040218001c030000c3
:020000040000fa
:04021c001c030000bf
:020000040000fa
:040220001c030000bb
:020000040000fa
:040224001c030000b7
:020000040000fa
:040228001c030000b3
:020000040000fa
:04022c00c802000004
:020000040000fa
:040230001c030000ab
:020000040000fa
:040234001c030000a7
:020000040000fa
:040238001c030000a3
:020000040000fa
:04023c001c0300009f
:020000040000fa
:040240001c0300009b
:020000040000fa
:040244001c03000097
:020000040000fa
:040248001c03000093
:020000040000fa
:04024c001c0300008f
:020000040000fa
:040250001c0300008b
:020000040000fa
:040254001c03000087
:020000040000fa
:040258001c03000083
:020000040000fa
:04025c00e0020000bc
:020000040000fa
:040260001c0300007b
:020000040000fa
:040264001c03000077
:020000040000fa
:040268001c03000073
:020000040000fa
:04026c001c0300006f
:020000040000fa
:040270001c0300006b
:020000040000fa
:040274001c03000067
:020000040000fa
:040278001c03000063
:020000040000fa
:04027c001c0300005f
:020000040000fa
:040280001c0300005b
:020000040000fa
:040284001c03000057
:020000040000fa
:040288001c03000053
:020000040000fa
:04028c001c0300004f
:020000040000fa
:040290001c0300004b
:020000040000fa
:040294001c03000047
:020000040000fa
:040298001c03000043
:020000040000fa
:04029c001c0300003f
:020000040000fa
:0402a0001c0300003b
:020000040000fa
:0402a4001c03000037
:020000040000fa
:0402a8001c03000033
:020000040000fa
:0402ac001c0300002f
:020000040000fa
:0402b0001c0300002b
:020000040000fa
:0402b4001c03000027
:020000040000fa
:0402b8001c03000023
:020000040000fa
:0402bc001c0300001f
:020000040000fa
:0402c0001c0300001b
:020000040000fa
:0402c4001c03000017
:020000040000fa
:0402c8001c03000013
:020000040000fa
:0402cc001c0300000f
:020000040000fa
:0402d0001c0300000b
:020000040000fa
:0402d4001c03000007
:020000040000fa
:0402d8001c03000003
:020000040000fa
:0402dc001c030000ff
:020000040000fa
:0402e0001c030000fb
:020000040000fa
:0402e4001c030000f7
:020000040000fa
:0402e8001c030000f3
:020000040000fa
:0402ec001c030000ef
:020000040000fa
:0402f0001c030000eb
:020000040000fa
:0402f4001c030000e7
:020000040000fa
:0402f8001c030000e3
:020000040000fa
:0402fc001c030000df
:020000040000fa
:040300001c030000da
:020000040000fa
:040304001c030000d6
:020000040000fa
:040308001c030000d2
:020000040000fa
:04030c001c030000ce
:020000040000fa
:040310001c030000ca
:020000040000fa
:040314001c030000c6
:020000040000fa
:040318001c030000c2
:020000040000fa
:04031c001c030000be
:020000040000fa
:040320001c030000ba
:020000040000fa
:040324001c030000b6
:020000040000fa
:040328001c030000b2
:020000040000fa
:04032c001c030000ae
:020000040000fa
:040330001c030000aa
:020000040000fa
:040334001c030000a6
:020000040000fa
:040338001c030000a2
:020000040000fa
:04033c001c0300009e
:020000040000fa
:040340001c0300009a
:020000040000fa
:040344001c03000096
:020000040000fa
:040348001c03000092
:020000040000fa
:10040000cfa120000e7f22000e0188000000000016
:10041000000020000000e000020032000001200087
:100420002002880014000700850007000000e0009b
:1004300003003a00c0fc2100010020000200370048
:100440000000200001002000810f70000100320038
:1004500014000700000020000000e000020032004d
:100460000000020000000000841f020000000000e5
:100470000040da000000fe004440a900c036210020
:100480000000e0000300320000002000a00188000e
:100490004440a800000006008a1f78008b1f7800e7
:1004a0000000060091018800800478000000eb0045
:1004b0001a003700e284440032a0b4009905ba0063
:1004c000e284440032a0b4009906ba00e2844400f9
:1004d00032a0b4000006eb00476fde00fd07b2005b
:1004e000636ce10003003a00ebff07000000eb0043
:1004f0000a003700606ce10004003a00005deb0088
:100500008b05e900fdff3e00040037006168e10053
:10051000010032000086eb000b00070019c7ba008b
:100520001905ba000e04e00003003a000a00e000da
:10053000e0ff3a0000000600fe07b2009e018800be
:100540008a047800f5ff3700395dba008b05e900b1
:100550000c003200295dba008b05e900080032006a
:100560000c00e00003003a00e284440032a0b40032
:10057000f5ff370019ddba008b05e900faff3a00f4
:100580008904e800e184440032a0b40000000600c1
:10059000801f78003400f80000002000a0018800cf
:1005a0000000fa008420a90010002000d04088003c
:1005b0000080fa003400f9004f0078000040060087
:1005c000809fbe003400f80000002000a0018800d9
:1005d0000000fa0085a0a90000188000f13f20006b
:1005e00000805000a040880010188000f13f2000db
:1005f00000805000b0408800601680004600de0099
:10060000614060000004a200614060000080fb00c7
:10061000610060004600dd00611680000160a100fd
:1006200001007000601688000080fa003400f900b4
:100630004f00be00004006000040da000000fe004f
:1006400000000500839f68000100e00002003d00fb
:1006500060001000e08018000300e00002003d0090
:1006600060011100e0811900050007004f00e00063
:1006700002003b0060001000e0801800000006004f
:100680006022b800060220000000d0008180d20065
:100690000482d2008582d2000000a0000202520033
:1006a00083825a00030031000202420083824a0022
:1006b0000000a1000603e900f3ff3a000000060075
:020000040000fa
:1006c000409c0000320000000a0000008000000092
:1006d000ffff0000eaff0000d6ff0000c1ff00009e
:1006e000adff000099ff000084ff000070ff0000d4
:1006f0005cff000047ff000033ff00001eff00000a
:100700000aff0000f6fe0000e1fe0000cdfe000042
:10071000b9fe0000a4fe000090fe00007bfe000079
:1007200067fe000053fe00003efe00002afe0000af
:1007300016fe000001fe0000edfd0000d8fd0000e7
:10074000c4fd0000b0fd00009bfd000087fd00001f
:1007500073fd00005efd00004afd000035fd000055
:1007600021fd00000dfd0000f8fc0000e4fc00008d
:10077000d0fc0000bbfc0000a7fc000092fc0000c5
:100780007efc00006afc000055fc000041fc0000fb
:100790002dfc000018fc000004fc0000effb000032
:1007a000dbfb0000c7fb0000b2fb00009efb00006b
:1007b0008afb000075fb000061fb00004cfb0000a1
:1007c00038fb000024fb00000ffb0000fbfa0000d8
:1007d000e7fa0000d2fa0000befa0000a9fa000011
:1007e00095fa000081fa00006cfa000058fa000047
:1007f00043fa00002ffa00001bfa000006fa00007e
:10080000f2f90000def90000c9f90000b5f90000b6
:10081000a0f900008cf9000078f9000063f90000ed
:100820004ff900003af9000026f9000012f9000023
:10083000fdf80000e9f80000d4f80000c0f800005e
:10084000acf8000097f8000083f800006ff8000093
:100850005af8000046f8000031f800001df80000ca
:1008600009f80000f4f70000e0f70000cbf7000003
:10087000b7f70000a3f700008ef700007af700003a
:1008800065f7000051f700003df7000028f7000071
:1008900014f70000fff60000ebf60000d7f60000aa
:1008a000c2f60000aef6000099f6000085f60000e2
:1008b00071f600005cf6000048f6000033f6000018
:1008c0001ff600000af60000f6f50000e2f5000051
:1008d000cdf50000b9f50000a4f5000090f500008a
:1008e0007cf5000067f5000053f500003ef50000c0
:1008f0002af5000016f5000001f50000edf40000f7
:10090000d8f40000c4f40000aff400009bf4000031
:1009100087f4000072f400005ef4000049f4000067
:1009200035f4000020f400000cf40000f8f300009f
:10093000e3f30000cff30000baf30000a6f30000d9
:1009400091f300007df3000069f3000054f3000010
:1009500040f300002bf3000017f3000002f3000047
:10096000eef20000daf20000c5f20000b1f2000081
:100970009cf2000088f2000073f200005ff20000b9
:100980004af2000036f2000022f200000df20000f0
:10099000f9f10000e4f10000d0f10000bbf100002b
:1009a000a7f1000092f100007ef100006af1000062
:1009b00055f1000041f100002cf1000018f1000099
:1009c00003f10000eff00000daf00000c6f00000d4
:1009d000b1f000009df0000088f0000074f000000d
:1009e00060f000004bf0000037f0000022f0000043
:1009f0000ef00000f9ef0000e5ef0000d0ef00007e
:100a0000bcef0000a7ef000093ef00007eef0000b6
:100a10006aef000055ef000041ef00002cef0000ee
:100a200018ef000004ef0000efee0000dbee000026
:100a3000c6ee0000b2ee00009dee000089ee000060
:100a400074ee000060ee00004bee000037ee000098
:100a500022ee00000eee0000f9ed0000e5ed0000d2
:100a6000d0ed0000bced0000a7ed000093ed00000c
:100a70007eed00006aed000055ed000041ed000044
:100a80002ced000018ed000003ed0000efec00007d
:100a9000daec0000c6ec0000b1ec00009dec0000b8
:100aa00088ec000073ec00005fec00004aec0000f2
:100ab00036ec000021ec00000dec0000f8eb00002b
:100ac000e4eb0000cfeb0000bbeb0000a6eb000066
:100ad00092eb00007deb000069eb000054eb00009e
:100ae00040eb00002beb000016eb000002eb0000d7
:100af000edea0000d9ea0000c4ea0000b0ea000014
:100b00009bea000087ea000072ea00005eea00004b
:100b100049ea000034ea000020ea00000bea000085
:100b2000f7e90000e2e90000cee90000b9e90000c1
:100b3000a5e9000090e900007be9000067e90000fa
:100b400052e900003ee9000029e9000015e9000033
:100b500000e90000ebe80000d7e80000c2e8000070
:100b6000aee8000099e8000085e8000070e80000a9
:100b70005be8000047e8000032e800001ee80000e3
:100b800009e80000f4e70000e0e70000cbe7000020
:100b9000b7e70000a2e700008de7000079e700005a
:100ba00064e7000050e700003be7000026e7000094
:100bb00012e70000fde60000e9e60000d4e60000d0
:100bc000bfe60000abe6000096e6000081e600000c
:100bd0006de6000058e6000044e600002fe6000045
:100be0001ae6000006e60000f1e50000dce5000082
:100bf000c8e50000b3e500009ee500008ae50000be
:100c000075e5000061e500004ce5000037e50000f7
:100c100023e500000ee50000f9e40000e5e4000033
:100c2000d0e40000bbe40000a7e4000092e4000070
:100c30007de4000069e4000054e400003fe40000ab
:100c40002be4000016e4000001e40000ede30000e6
:100c5000d8e30000c3e30000afe300009ae3000024
:100c600085e3000071e300005ce3000047e300005f
:100c700032e300001ee3000009e30000f4e200009c
:100c8000e0e20000cbe20000b6e20000a2e20000d9
:100c90008de2000078e2000063e200004fe2000015
:100ca0003ae2000025e2000011e20000fce1000051
:100cb000e7e10000d2e10000bee10000a9e1000090
:100cc00094e100007fe100006be1000056e10000cc
:100cd00041e100002de1000018e1000003e1000007
:100ce000eee00000dae00000c5e00000b0e0000047
:100cf0009be0000087e0000072e000005de0000083
:100d000048e0000033e000001fe000000ae00000bf
:100d1000f5df0000e0df0000ccdf0000b7df0000ff
:100d2000a2df00008ddf000079df000064df00003b
:100d30004fdf00003adf000025df000011df000078
:100d4000fcde0000e7de0000d2de0000bdde0000b9
:100d5000a9de000094de00007fde00006ade0000f5
:100d600055de000041de00002cde000017de000032
:100d700002de0000eddd0000d8dd0000c4dd000073
:100d8000afdd00009add000085dd000070dd0000b1
:100d90005bdd000047dd000032dd00001ddd0000ee
:100da00008dd0000f3dc0000dedc0000c9dc000030
:100db000b5dc0000a0dc00008bdc000076dc00006d
:100dc00061dc00004cdc000037dc000023dc0000ac
:100dd0000edc0000f9db0000e4db0000cfdb0000ec
:100de000badb0000a5db000090db00007bdb00002d
:100df00067db000052db00003ddb000028db000069
:100e000013db0000feda0000e9da0000d4da0000ab
:100e1000bfda0000aada000095da000081da0000eb
:100e20006cda000057da000042da00002dda000028
:100e300018da000003da0000eed90000d9d900006a
:100e4000c4d90000afd900009ad9000085d90000ac
:100e500070d900005bd9000046d9000031d90000ec
:100e60001dd9000008d90000f3d80000ded800002a
:100e7000c9d80000b4d800009fd800008ad800006c
:100e800075d8000060d800004bd8000036d80000ac
:100e900021d800000cd80000f7d70000e2d70000ee
:100ea000cdd70000b8d70000a3d700008ed7000030
:100eb00079d7000064d700004fd700003ad7000070
:100ec00025d7000010d70000fbd60000e5d60000b3
:100ed000d0d60000bbd60000a6d6000091d60000f8
:100ee0007cd6000067d6000052d600003dd6000038
:100ef00028d6000013d60000fed50000e9d500007a
:100f0000d4d50000bfd50000aad5000095d50000bb
:100f10007fd500006ad5000055d5000040d50000ff
:100f20002bd5000016d5000001d50000ecd4000040
:100f3000d7d40000c2d40000acd4000097d4000085
:100f400082d400006dd4000058d4000043d40000c7
:100f50002ed4000019d4000003d40000eed300000a
:100f6000d9d30000c4d30000afd300009ad300004f
:100f700085d300006fd300005ad3000045d3000092
:100f800030d300001bd3000006d30000f0d20000d5
:100f9000dbd20000c6d20000b1d200009cd200001b
:100fa00087d2000071d200005cd2000047d200005e
:100fb00032d200001dd2000007d20000f2d10000a2
:100fc000ddd10000c8d10000b2d100009dd10000e9
:100fd00088d1000073d100005ed1000048d100002c
:100fe00033d100001ed1000009d10000f3d0000071
:100ff000ded00000c9d00000b4d000009ed00000b8
:1010000089d0000074d000005fd0000049d00000fb
:1010100034d000001fd0000009d00000f4cf000041
:10102000dfcf0000cacf0000b4cf00009fcf000088
:101030008acf000074cf00005fcf00004acf0000cd
:1010400034cf00001fcf00000acf0000f4ce000014
:10105000dfce0000cace0000b4ce00009fce00005c
:101060008ace000074ce00005fce00004ace0000a1
:1010700034ce00001fce00000ace0000f4cd0000e8
:10108000dfcd0000c9cd0000b4cd00009fcd000031
:1010900089cd000074cd00005fcd000049cd000077
:1010a00034cd00001ecd000009cd0000f3cc0000bf
:1010b000decc0000c9cc0000b3cc00009ecc000008
:1010c00088cc000073cc00005ecc000048cc00004f
:1010d00033cc00001dcc000008cc0000f2cb000097
:1010e000ddcb0000c7cb0000b2cb00009ccb0000e2
:1010f00087cb000071cb00005ccb000046cb00002a
:1011000031cb00001ccb000006cb0000f1ca000070
:10111000dbca0000c6ca0000b0ca00009aca0000bc
:1011200085ca00006fca00005aca000044ca000005
:101130002fca000019ca000004ca0000eec900004e
:10114000d9c90000c3c90000aec9000098c9000099
:1011500082c900006dc9000057c9000042c90000e3
:101160002cc9000017c9000001c90000ebc800002d
:10117000d6c80000c0c80000abc8000095c8000079
:101180007fc800006ac8000054c800003fc80000c3
:1011900029c8000013c80000fec70000e8c700000f
:1011a000d2c70000bdc70000a7c7000091c700005c
:1011b0007cc7000066c7000050c700003bc70000a6
:1011c00025c700000fc70000fac60000e4c60000f3
:1011d000cec60000b9c60000a3c600008dc6000040
:1011e00078c6000062c600004cc6000036c600008b
:1011f00021c600000bc60000f5c50000dfc50000d9
:10120000cac50000b4c500009ec5000088c5000026
:1012100073c500005dc5000047c5000031c5000072
:101220001cc5000006c50000f0c40000dac40000c0
:10123000c4c40000afc4000099c4000083c400000f
:101240006dc4000057c4000042c400002cc400005c
:1012500016c4000000c40000eac30000d4c30000ac
:10126000bfc30000a9c3000093c300007dc30000fa
:1012700067c3000051c300003bc3000026c3000049
:1012800010c30000fac20000e4c20000cec2000099
:10129000b8c20000a2c200008cc2000076c20000ea
:1012a00060c200004bc2000035c200001fc2000037
:1012b00009c20000f3c10000ddc10000c7c1000089
:1012c000b1c100009bc1000085c100006fc10000da
:1012d00059c1000043c100002dc1000017c100002a
:1012e00001c10000ebc00000d5c00000bfc000007d
:1012f000a9c0000093c000007dc0000067c00000ce
:1013000051c000003bc0000025c000000fc000001d
:10131000f9bf0000e3bf0000cdbf0000b7bf000071
:10132000a1bf00008bbf000075bf00005ebf0000c2
:1013300048bf000032bf00001cbf000006bf000015
:10134000f0be0000dabe0000c4be0000aebe000069
:1013500097be000081be00006bbe000055be0000bd
:101360003fbe000029be000013be0000fcbd00000f
:10137000e6bd0000d0bd0000babd0000a4bd000065
:101380008ebd000077bd000061bd00004bbd0000b8
:1013900035bd00001fbd000008bd0000f2bc00000c
:1013a000dcbc0000c6bc0000afbc000099bc000063
:1013b00083bc00006dbc000056bc000040bc0000b7
:1013c0002abc000014bc0000fdbb0000e7bb00000d
:1013d000d1bb0000babb0000a4bb00008ebb000064
:1013e00078bb000061bb00004bbb000035bb0000b8
:1013f0001ebb000008bb0000f2ba0000dbba000010
:10140000c5ba0000aeba000098ba000082ba000067
:101410006bba000055ba00003fba000028ba0000bd
:1014200012ba0000fbb90000e5b90000cfb9000016
:10143000b8b90000a2b900008bb9000075b900006e
:101440005eb9000048b9000031b900001bb90000c6
:1014500005b90000eeb80000d8b80000c1b800001f
:10146000abb8000094b800007eb8000067b8000078
:1014700051b800003ab8000024b800000db80000d0
:10148000f7b70000e0b70000c9b70000b3b700002d
:101490009cb7000086b700006fb7000059b7000086
:1014a00042b700002bb7000015b70000feb60000e1
:1014b000e8b60000d1b60000bab60000a4b600003d
:1014c0008db6000077b6000060b6000049b6000097
:1014d00033b600001cb6000005b60000efb50000f2
:1014e000d8b50000c1b50000abb5000094b5000050
:1014f0007db5000066b5000050b5000039b50000ac
:1015000022b500000cb50000f5b40000deb4000008
:10151000c7b40000b1b400009ab4000083b4000066
:101520006cb4000056b400003fb4000028b40000c2
:1015300011b40000fab30000e4b30000cdb3000022
:10154000b6b300009fb3000088b3000071b3000081
:101550005bb3000044b300002db3000016b30000dd
:10156000ffb20000e8b20000d1b20000bab2000041
:10157000a3b200008db2000076b200005fb200009e
:1015800048b2000031b200001ab2000003b20000fd
:10159000ecb10000d5b10000beb10000a7b1000061
:1015a00090b1000079b1000062b100004bb10000c1
:1015b00034b100001db1000006b10000efb0000022
:1015c000d8b00000c1b00000aab0000093b0000085
:1015d0007cb0000065b000004eb0000037b00000e5
:1015e00020b0000009b00000f1af0000daaf000049
:1015f000c3af0000acaf000095af00007eaf0000ad
:1016000067af000050af000038af000021af00000e
:101610000aaf0000f3ae0000dcae0000c5ae000073
:10162000adae000096ae00007fae000068ae0000d8
:1016300050ae000039ae000022ae00000bae00003c
:10164000f3ad0000dcad0000c5ad0000aead0000a4
:1016500096ad00007fad000068ad000051ad000008
:1016600039ad000022ad00000bad0000f3ac00006e
:10167000dcac0000c5ac0000adac000096ac0000d6
:101680007eac000067ac000050ac000038ac00003d
:1016900021ac000009ac0000f2ab0000dbab0000a5
:1016a000c3ab0000acab000094ab00007dab00000e
:1016b00065ab00004eab000037ab00001fab000075
:1016c00008ab0000f0aa0000d9aa0000c1aa0000df
:1016d000aaaa000092aa00007aaa000063aa000049
:1016e0004baa000034aa00001caa000005aa0000b2
:1016f000eda90000d5a90000bea90000a6a9000020
:101700008fa9000077a900005fa9000048a9000088
:1017100030a9000018a9000001a90000e9a80000f4
:10172000d1a80000baa80000a2a800008aa8000062
:1017300073a800005ba8000043a800002ca80000cc
:1017400014a80000fca70000e4a70000cda700003b
:10175000b5a700009da7000085a700006da70000a9
:1017600056a700003ea7000026a700000ea7000015
:10177000f6a60000dea60000c7a60000afa6000087
:1017800097a600007fa6000067a600004fa60000f5
:1017900037a600001fa6000007a60000f0a5000065
:1017a000d8a50000c0a50000a8a5000090a50000d5
:1017b00078a5000060a5000048a5000030a5000045
:1017c00018a5000000a50000e8a40000d0a40000b7
:1017d000b8a40000a0a4000088a400006fa400002a
:1017e00057a400003fa4000027a400000fa400009d
:1017f000f7a30000dfa30000c7a30000afa3000011
:1018000096a300007ea3000066a300004ea3000084
:1018100036a300001ea3000005a30000eda20000f7
:10182000d5a20000bda20000a5a200008ca200006d
:1018300074a200005ca2000044a200002ba20000e1
:1018400013a20000fba10000e2a10000caa1000059
:10185000b2a1000099a1000081a1000069a10000cf
:1018600050a1000038a1000020a1000007a1000045
:10187000efa00000d6a00000bea00000a5a00000c0
:101880008da0000075a000005ca0000044a0000036
:101890002ba0000013a00000fa9f0000e29f0000b0
:1018a000c99f0000b19f0000989f0000809f00002a
:1018b000679f00004e9f0000369f00001d9f0000a4
:1018c000059f0000ec9e0000d39e0000bb9e000020
:1018d000a29e00008a9e0000719e0000589e00009b
:1018e000409e0000279e00000e9e0000f59d000017
:1018f000dd9d0000c49d0000ab9d0000939d000095
:101900007a9d0000619d0000489d00002f9d000011
:10191000179d0000fe9c0000e59c0000cc9c000090
:10192000b39c00009b9c0000829c0000699c00000e
:10193000509c0000379c00001e9c0000059c00008d
:10194000ec9b0000d39b0000ba9b0000a29b000010
:10195000899b0000709b0000579b00003e9b00008d
:10196000259b00000c9b0000f39a0000da9a00000f
:10197000c09a0000a79a00008e9a0000759a000095
:101980005c9a0000439a00002a9a0000119a000015
:10199000f8990000df990000c5990000ac9900009b
:1019a000939900007a99000061990000479900001e
:1019b0002e99000015990000fc980000e3980000a3
:1019c000c9980000b0980000979800007d9800002a
:1019d000649800004b9800003198000018980000af
:1019e000ff970000e5970000cc970000b397000038
:1019f0009997000080970000669700004d970000bf
:101a0000339700001a97000001970000e796000046
:101a1000ce960000b49600009a96000081960000d1
:101a2000679600004e960000349600001b9600005a
:101a300001960000e8950000ce950000b4950000e6
:101a40009b95000081950000679500004e95000071
:101a5000349500001a95000001950000e7940000fd
:101a6000cd940000b39400009a940000809400008c
:101a7000669400004c940000329400001994000019
:101a8000ff930000e5930000cb930000b1930000aa
:101a9000979300007d930000649300004a93000038
:101aa0003093000016930000fc920000e2920000c8
:101ab000c8920000ae920000949200007a9200005a
:101ac00060920000469200002c92000012920000ea
:101ad000f7910000dd910000c3910000a991000082
:101ae0008f910000759100005b9100004091000013
:101af000269100000c910000f2900000d8900000a8
:101b0000bd900000a3900000899000006e9000003e
:101b1000549000003a9000002090000005900000d2
:101b2000eb8f0000d08f0000b68f00009c8f00006c
:101b3000818f0000678f00004c8f0000328f000003
:101b4000178f0000fd8e0000e38e0000c88e00009d
:101b5000ad8e0000938e0000788e00005e8e000037
:101b6000438e0000298e00000e8e0000f38d0000d1
:101b7000d98d0000be8d0000a38d0000898d00006e
:101b80006e8d0000538d0000398d00001e8d000009
:101b9000038d0000e88c0000ce8c0000b38c0000a8
:101ba000988c00007d8c0000628c0000478c000047
:101bb0002d8c0000128c0000f78b0000dc8b0000e5
:101bc000c18b0000a68b00008b8b0000708b000087
:101bd000558b00003a8b00001f8b0000048b000027
:101be000e98a0000ce8a0000b38a0000988a0000cb
:101bf0007d8a0000628a0000468a00002b8a00006d
:101c0000108a0000f5890000da890000be89000012
:101c1000a3890000888900006d89000051890000b7
:101c2000368900001b890000ff880000e48800005e
:101c3000c9880000ad880000928800007688000006
:101c40005b880000408800002488000009880000ac
:101c5000ed870000d2870000b68700009b87000058
:101c60007f87000063870000488700002c87000002
:101c700011870000f5860000d9860000be860000ae
:101c8000a2860000868600006a8600004f8600005b
:101c90003386000017860000fb850000e085000009
:101ca000c4850000a88500008c85000070850000b8
:101cb00054850000388500001c8500000085000068
:101cc000e4840000c8840000ac840000908400001c
:101cd00074840000588400003c84000020840000cc
:101ce00004840000e8830000cc830000b08300007f
:101cf00093830000778300005b8300003f83000034
:101d00002283000006830000ea820000ce820000e9
:101d1000b182000095820000788200005c820000a1
:101d2000408200002382000007820000ea81000058
:101d3000ce810000b1810000958100007881000013
:101d40005c8100003f8100002381000006810000cb
:101d5000e9800000cd800000b0800000938000008a
:101d6000778000005a8000003d80000000000000e5
:101d700014000000280000003d0000005100000099
:101d8000650000007a0000008e000000a300000043
:101d9000b7000000cb000000e0000000f4000000ed
:101da000090100001d010000310100004601000092
:101db0005a0100006f01000083010000970100003c
:101dc000ac010000c0010000d4010000e9010000e6
:101dd000fd01000012020000260200003a0200008d
:101de0004f02000063020000770200008c02000036
:101df000a0020000b5020000c9020000dd020000e0
:101e0000f2020000060300001a0300002f03000086
:101e100043030000570300006c0300008003000030
:101e200095030000a9030000bd030000d2030000d9
:101e3000e6030000fa0300000f0400002304000082
:101e4000370400004c04000060040000740400002b
:101e5000890400009d040000b1040000c6040000d5
:101e6000da040000ee04000003050000170500007e
:101e70002b0500003f050000540500006805000028
:101e80007c05000091050000a5050000b9050000d3
:101e9000ce050000e2050000f60500000a0600007d
:101ea0001f06000033060000470600005c06000025
:101eb000700600008406000098060000ad060000d1
:101ec000c1060000d5060000e9060000fe0600007d
:101ed00012070000260700003a0700004e07000026
:101ee00063070000770700008b0700009f070000d2
:101ef000b4070000c8070000dc070000f00700007e
:101f000004080000190800002d0800004108000026
:101f100055080000690800007d08000092080000d4
:101f2000a6080000ba080000ce080000e208000081
:101f3000f60800000b0900001f090000330900002b
:101f4000470900005b0900006f09000083090000d9
:101f500097090000ac090000c0090000d409000086
:101f6000e8090000fc090000100a0000240a000033
:101f7000380a00004c0a0000600a0000740a0000e1
:101f8000880a00009c0a0000b10a0000c50a00008f
:101f9000d90a0000ed0a0000010b0000150b00003b
:101fa000290b00003d0b0000510b0000650b0000e9
:101fb000790b00008d0b0000a10b0000b50b000099
:101fc000c90b0000dd0b0000f10b0000040c000049
:101fd000180c00002c0c0000400c0000540c0000f9
:101fe000680c00007c0c0000900c0000a40c0000a9
:101ff000b80c0000cc0c0000e00c0000f30c00005a
:10200000070d00001b0d00002f0d0000430d000008
:10201000570d00006b0d00007e0d0000920d0000ba
:10202000a60d0000ba0d0000ce0d0000e20d00006c
:10203000f50d0000090e00001d0e0000310e00001d
:10204000450e0000580e00006c0e0000800e0000cf
:10205000940e0000a70e0000bb0e0000cf0e000083
:10206000e30e0000f60e00000a0f00001e0f000035
:10207000310f0000450f0000590f00006c0f0000e9
:10208000800f0000940f0000a70f0000bb0f00009e
:10209000cf0f0000e20f0000f60f00000910000053
:1020a0001d10000031100000441000005810000006
:1020b0006b1000007f10000093100000a6100000bd
:1020c000ba100000cd100000e1100000f410000074
:1020d000081100001b1100002f1100004211000028
:1020e00056110000691100007d11000090110000e0
:1020f000a4110000b7110000cb110000de11000098
:10210000f111000005120000181200002c1200004e
:102110003f12000052120000661200007912000007
:102120008c120000a0120000b3120000c7120000c1
:10213000da120000ed12000000130000141300007a
:10214000271300003a1300004e1300006113000033
:1021500074130000871300009b130000ae130000ef
:10216000c1130000d4130000e7130000fb130000ac
:102170000e14000021140000341400004714000065
:102180005a1400006e140000811400009414000022
:10219000a7140000ba140000cd140000e0140000e1
:1021a000f314000006150000191500002d1500009d
:1021b0004015000053150000661500007915000059
:1021c0008c1500009f150000b2150000c515000019
:1021d000d8150000eb150000fd15000010160000da
:1021e0002316000036160000491600005c16000099
:1021f0006f1600008216000095160000a816000059
:10220000ba160000cd160000e0160000f31600001c
:1022100006170000191700002b1700003e170000da
:10222000511700006417000076170000891700009e
:102230009c170000af170000c1170000d417000062
:10224000e7170000f91700000c1800001f18000025
:1022500031180000441800005718000069180000e9
:102260007c1800008e180000a1180000b4180000af
:10227000c6180000d9180000eb180000fe18000076
:10228000101900002319000035190000481900003a
:102290005a1900006d1900007f1900009219000002
:1022a000a4190000b7190000c9190000db190000cb
:1022b000ee190000001a0000131a0000251a000091
:1022c000371a00004a1a00005c1a00006e1a00005b
:1022d000811a0000931a0000a51a0000b81a000025
:1022e000ca1a0000dc1a0000ee1a0000011b0000f0
:1022f000131b0000251b0000371b0000491b0000ba
:102300005c1b00006e1b0000801b0000921b000085
:10231000a41b0000b61b0000c81b0000db1b000054
:10232000ed1b0000ff1b0000111c0000231c00001f
:10233000351c0000471c0000591c00006b1c0000ed
:102340007d1c00008f1c0000a11c0000b31c0000bd
:10235000c51c0000d71c0000e91c0000fb1c00008d
:102360000d1d00001f1d0000301d0000421d00005b
:10237000541d0000661d0000781d00008a1d00002d
:102380009c1d0000ad1d0000bf1d0000d11d000000
:10239000e31d0000f41d0000061e0000181e0000d2
:1023a0002a1e00003b1e00004d1e00005f1e0000a4
:1023b000701e0000821e0000941e0000a51e00007a
:1023c000b71e0000c91e0000da1e0000ec1e00004f
:1023d000fe1e00000f1f0000211f0000321f000022
:1023e000441f0000551f0000671f0000781f0000f9
:1023f0008a1f00009b1f0000ad1f0000be1f0000d1
:10240000d01f0000e11f0000f21f000004200000a8
:10241000152000002720000038200000492000007f
:102420005b2000006c2000007d2000008f20000059
:10243000a0200000b1200000c3200000d420000034
:10244000e5200000f620000008210000192100000e
:102450002a2100003b2100004c2100005e210000e9
:102460006f2100008021000091210000a2210000c6
:10247000b3210000c4210000d5210000e6210000a6
:10248000f7210000082200001a2200002b22000081
:102490003c2200004d2200005e2200006e2200005f
:1024a0007f22000090220000a1220000b222000042
:1024b000c3220000d4220000e5220000f622000022
:1024c0000723000017230000282300003923000001
:1024d0004a2300005b2300006c2300007c230000e3
:1024e0008d2300009e230000af230000bf230000c7
:1024f000d0230000e1230000f123000002240000ab
:10250000132400002324000034240000452400008c
:102510005524000066240000762400008724000073
:1025200097240000a8240000b8240000c92400005b
:10253000da240000ea240000fa2400000b25000041
:102540001b2500002c2500003c2500004d25000027
:102550005d2500006d2500007e2500008e25000011
:102560009f250000af250000bf250000d0250000fa
:10257000e0250000f02500000026000011260000e4
:1025800021260000312600004126000052260000ce
:1025900062260000722600008226000092260000bb
:1025a000a2260000b3260000c3260000d3260000a8
:1025b000e3260000f3260000032700001327000095
:1025c0002327000033270000432700005327000083
:1025d0006327000073270000832700009327000073
:1025e000a3270000b3270000c3270000d327000063
:1025f000e3270000f3270000022800001228000053
:102600002228000032280000422800005228000042
:102610006128000071280000812800009128000036
:10262000a0280000b0280000c0280000cf2800002b
:10263000df280000ef280000ff2800000e2900001e
:102640001e2900002d2900003d2900004d29000011
:102650005c2900006c2900007b2900008b29000008
:102660009a290000aa290000b9290000c929000000
:10267000d8290000e8290000f7290000072a0000f7
:10268000162a0000262a0000352a0000442a0000ed
:10269000542a0000632a0000722a0000822a0000e7
:1026a000912a0000a02a0000b02a0000bf2a0000e2
:1026b000ce2a0000dd2a0000ed2a0000fc2a0000de
:1026c0000b2b00001a2b00002a2b0000392b0000d6
:1026d000482b0000572b0000662b0000752b0000d4
:1026e000842b0000942b0000a32b0000b22b0000d1
:1026f000c12b0000d02b0000df2b0000ee2b0000d0
:10270000fd2b00000c2c00001b2c00002a2c0000cc
:10271000392c0000482c0000572c0000662c0000cb
:10272000752c0000832c0000922c0000a12c0000ce
:10273000b02c0000bf2c0000ce2c0000dc2c0000d0
:10274000eb2c0000fa2c0000092d0000182d0000d1
:10275000262d0000352d0000442d0000532d0000d3
:10276000612d0000702d00007f2d00008d2d0000d8
:102770009c2d0000ab2d0000b92d0000c82d0000dd
:10278000d62d0000e52d0000f42d0000022e0000e3
:10279000112e00001f2e00002e2e00003c2e0000e7
:1027a0004b2e0000592e0000682e0000762e0000ef
:1027b000852e0000932e0000a12e0000b02e0000f8
:1027c000be2e0000cd2e0000db2e0000e92e000002
:1027d000f82e0000062f0000142f0000232f000009
:1027e000312f00003f2f00004d2f00005c2f000014
:1027f0006a2f0000782f0000862f0000952f000020
:10280000a32f0000b12f0000bf2f0000cd2f00002c
:10281000db2f0000e92f0000f82f00000630000039
:102820001430000022300000303000003e30000044
:102830004c3000005a300000683000007630000054
:102840008430000092300000a0300000ae30000064
:10285000bc300000ca300000d8300000e630000074
:10286000f3300000013100000f3100001d31000085
:102870002b31000039310000463100005431000096
:1028800062310000703100007e3100008b310000a9
:1028900099310000a7310000b4310000c2310000be
:1028a000d0310000dd310000eb310000f9310000d3
:1028b0000632000014320000223200002f320000e5
:1028c0003d3200004a3200005832000065320000fc
:1028d00073320000813200008e3200009c32000012
:1028e000a9320000b6320000c4320000d13200002c
:1028f000df320000ec320000fa3200000733000043
:1029000014330000223300002f3300003c3300005a
:102910004a33000057330000643300007233000074
:102920007f3300008c3300009a330000a73300008f
:10293000b4330000c1330000ce330000dc330000ac
:10294000e9330000f63300000334000010340000c7
:102950001d3400002b3400003834000045340000e2
:10296000523400005f3400006c3400007934000001
:102970008634000093340000a0340000ad34000021
:10298000ba340000c7340000d4340000e134000041
:10299000ee340000fb34000008350000153500005f
:1029a000223500002e3500003b3500004835000080
:1029b00055350000623500006f3500007b350000a2
:1029c0008835000095350000a2350000ae350000c6
:1029d000bb350000c8350000d5350000e1350000ea
:1029e000ee350000fb35000007360000143600000d
:1029f000213600002d3600003a3600004736000030
:102a000053360000603600006c3600007936000056
:102a100085360000923600009f360000ab3600007d
:102a2000b8360000c4360000d1360000dd360000a4
:102a3000e9360000f6360000023700000f370000cc
:102a40001b370000283700003437000040370000f3
:102a50004d3700005937000065370000723700001d
:102a60007e3700008a37000097370000a337000048
:102a7000af370000bb370000c8370000d437000074
:102a8000e0370000ec370000f9370000053800009f
:102a9000113800001d3800002938000035380000ca
:102aa000413800004e3800005a38000066380000f7
:102ab000723800007e3800008a3800009638000026
:102ac000a2380000ae380000ba380000c638000056
:102ad000d2380000de380000ea380000f638000086
:102ae000023900000e3900001a39000026390000b2
:102af000323900003d3900004939000055390000e5
:102b0000613900006d390000793900008539000015
:102b1000903900009c390000a8390000b439000049
:102b2000bf390000cb390000d7390000e33900007d
:102b3000ee390000fa390000063a0000113a0000b0
:102b40001d3a0000293a0000343a0000403a0000e3
:102b50004c3a0000573a0000633a00006e3a000019
:102b60007a3a0000863a0000913a00009d3a00004f
:102b7000a83a0000b43a0000bf3a0000cb3a000087
:102b8000d63a0000e23a0000ed3a0000f93a0000bf
:102b9000043b0000103b00001b3b0000263b0000f4
:102ba000323b00003d3b0000493b0000543b00002d
:102bb0005f3b00006b3b0000763b0000813b000068
:102bc0008d3b0000983b0000a33b0000ae3b0000a3
:102bd000ba3b0000c53b0000d03b0000db3b0000df
:102be000e73b0000f23b0000fd3b0000083c00001a
:102bf000133c00001f3c00002a3c0000353c000054
:102c0000403c00004b3c0000563c0000613c000092
:102c10006d3c0000783c0000833c00008e3c0000ce
:102c2000993c0000a43c0000af3c0000ba3c00000e
:102c3000c53c0000d03c0000db3c0000e63c00004e
:102c4000f13c0000fc3c0000073d0000123d00008c
:102c50001d3d0000273d0000323d00003d3d0000cd
:102c6000483d0000533d00005e3d0000693d00000e
:102c7000743d00007e3d0000893d0000943d000051
:102c80009f3d0000aa3d0000b43d0000bf3d000094
:102c9000ca3d0000d53d0000df3d0000ea3d0000d8
:102ca000f53d0000003e00000a3e0000153e000019
:102cb000203e00002a3e0000353e00003f3e00005e
:102cc0004a3e0000553e00005f3e00006a3e0000a4
:102cd000753e00007f3e00008a3e0000943e0000ea
:102ce0009f3e0000a93e0000b43e0000be3e000032
:102cf000c93e0000d33e0000de3e0000e83e00007a
:102d0000f33e0000fd3e0000083f0000123f0000bf
:102d10001d3f0000273f0000313f00003c3f000006
:102d2000463f0000503f00005b3f0000653f000051
:102d3000703f00007a3f0000843f00008e3f00009b
:102d4000993f0000a33f0000ad3f0000b83f0000e6
:102d5000c23f0000cc3f0000d63f0000e13f000032
:102d6000eb3f0000f53f0000ff3f0000409c0000eb
:102d7000320000000a00000080000000409c0000bb
:102d8000320000000a000000800000003c0000004b
:082d9000780000007b00000048
:020000040000fa
:102d98000000fa00213a8000f08f2f0000806000c8
:102da800203a8800113a8000f00b20000081600072
:102db80060042000710520002374200080497800f9
:102dc800814978008249780071368000f00f2e0022
:102dd80080806000002021000100700070368800ab
:102de8007136800000fe2f00008060003001b300c3
:102df80070368800103a8000000178000260a00058
:102e080060042000710520002374200080497800a8
:102e180081497800824978000080eb0060198800b9
:102e2800c9e2a900c9c2a9000a21ef00001b840059
:102e3800700888000001280090088800001b8400a2
:102e48000000e00001003d00630040004280de0019
:102e5800000c8800e0002000200c88008481a90074
:102e68008621ef00e0002000500c88008a81a9002c
:102e78000080fa00000006000000fa0060198000d7
:102e88000050a00060198800c8a2a8006b60a800c4
:102e9800caa2a900113a8000f00b2000008160004e
:102ea8006004200071052000237420008049780008
:102eb80081497800824978007134800000fe2f0033
:102ec800008060005000b30070348800103a800021
:102ed800000178000260a000600420007105200055
:102ee800237420008049780081497800824978005d
:102ef800110a800080ff2f00008060003000b300be
:102f0800100a88008420a9009420a8000080fa00f4
:102f1800000006000200fa00000f78001e0078008a
:102f28008000eb0002fa20000289b9000201780053
:102f38006002b900840178000301410003fa20000f
:102f48000300b8000101410082007800f2ff2f0061
:102f580003002000c8f5070000007800803eb0009c
:102f6800000c88000080fa00000006000200fa0049
:102f7800000f78001e0078008000eb0002062f008a
:102f88000289b900020178008081eb000382b90050
:102f9800840178000301410003062f000300b800f4
:102fa800010141008200780002062f00f3f9200099
:102fb8000000410081804900f2ff2f00030020003b
:102fc800adf5070000007800803eb000300c8800a6
:102fd8000080fa00000006001200fa00889fbe0078
:102fe8008a9fbe0070079800010f9800fe009000ad
:102ff8000e089000810f5000010031000100780098
:10300800000f78009e007800700220000088b90048
:1030180000007800000f78001e0078004500de00f0
:10302800000f78007e0090006101b8007e009000db
:103038008000eb00009ab90004027800028bb90006
:1030480086027800050242000011b800030242001f
:10305800840178000e0890006102b8000e08900004
:103068008000eb0000abb90006037800048cb900bf
:1030780088037800070343000020b80001034300d9
:1030880086007800020040008380480010079800fe
:10309800210798001e0078006101b8002e009000fa
:1030a8006300b900000078009e009000600ab90033
:1030b80084007800010040001e02900031002000ca
:1030c8000122b80005004000800278001e00780048
:1030d8006103b8001e0078008000eb0000bcb90056
:1030e80008047800068db9008a04780009044400b1
:1030f8000030b80001044400880078000400400053
:10310800858048004e0add004200de0000007200a3
:10311800c208de00009ab90004027800028bb900e8
:1031280086027800050242000010b8000102420041
:10313800840078003007980041079800300798000d
:10314800410798001e0078006101b8001e00780051
:103158008000eb00009ab90004027800028bb900e5
:1031680086027800050242000010b8000102420001
:10317800840078006309b900020178006002b90090
:103188008401780003014100330020000300b800e7
:1031980001014100820078001e019000ae019000fc
:1031a80000004100818049004909dd004700de0038
:1031b80000007100c708de00e00f5000e08f5800e3
:1031c80002003a001000200001002000500798007b
:1031d8005e0090008000eb000001be003e00900001
:1031e800ce00900024f507004b0add004500de0004
:1031f80000007200c508de00600798006e009000ad
:103208004f05be004f04be000080fa000000060013
:103218000400fa00000f7800110798009e00900043
:103228001e0078006cff07008000400080362800f0
:1032380000804000100078000080fa0000000600be
:103248000400fa00889fbe00000f7800110798005c
:103258001e0090008000eb00c002dd00040020008a
:103268001e007800e10f5000030036001e007800b1
:103278008000eb0002003700100020000100200051
:103288000001be000400be00ecf40700f23f20007d
:103298000289b900020178006002b900840178004f
:1032a80003014100f33f20000300b8000101410081
:1032b80082007800408cde00cf8cde0008007800a9
:1032c8004f04be000080fa00000006000400fa0067
:1032d800881f7800000f7800110798001e009000e2
:1032e8009e0f50000f0031009e0090001e007800d5
:1032f800d3ff07008000400060eb280000804000fa
:10330800100478009e0090001e007800c0ff07009f
:103318000000d10080005400000028000080400018
:103328000d0037009e0078001e009000c4ff0700c3
:103338008000400060eb280000804000100078000a
:103348000004ea009e0090001e007800b0ff07000d
:103358000000d100000054004f0478000080fa00fb
:10336800000006001000fa00500798006107980056
:1033780072079800a14080005e0090000080500015
:103388004500dd0010079800b14080006e009000f5
:10339800008050004500dd0020079800a140800013
:1033a80031079800b3408000430798000000eb0005
:1033b800000f78002e003700a24080009e00900089
:1033c8007e00900080017800110009008300d80079
:1033d800800078001e0078000088b900000078009e
:1033e8004580de0000005100a0408800b240800007
:1033f800ae0090007e009000800178001100090066
:103408008300d800800078001e0078000088b9008a
:10341800000078004580de0000005100b0408800c0
:10342800100020001c000700be009000a14088008a
:10343800ce019000b3408800101b8400ea02070008
:10344800601680004f00de00004078000004a200f3
:10345800614060000080fb004f00dd0061168000c5
:1034680001f0a10001007000601688001e0fe8003e
:103478007e0090009e007800808f5000ceff3500bf
:10348800de009000a1408800ee019000b340880063
:103498000080fa00000006000a00fa0040079800c1
:1034a800a0408000311b8400810f500001003d00c6
:1034b80001007800000f7800b140800011079800e3
:1034c8009e0090001e00780051ff0700200798001a
:1034d8009e0090001e0078007cff070030079800cf
:1034e8002e009000f70107003e0090002a02070016
:1034f800c040800080004000c08120000080400063
:10350800100078000000e000080032004040800011
:1035180051408000000078007efe070020408000b7
:10352800314080000000780090fe07004e009000b7
:103538000000e00021003200ef0007008000eb00ef
:103548000000eb005f0107003e0090003901070012
:103558008000eb00200020005a0107002e00900098
:10356800340107008000eb004000200055010700ef
:103578001e0078002f010700c0c2b3001301070026
:1035880000c2b300110107001e00900029010700c6
:103598008000eb00600020004a010700a040800086
:1035a80024010700c0c2b3000801070000c2b3002d
:1035b80006010700b04080001e0107000080fa00e5
:1035c800000006000200fa000000eb00000f78007f
:1035d80056003700201b840000017800512b200082
:1035e800502b20005fff0700201b8400000178009b
:1035f800c12e2000102620005aff0700201b84003f
:1036080000017800013020000020200055ff07004d
:10361800201b840000017800c12e2000e019200042
:1036280050ff0700201b840000017800512b200068
:10363800a01420004bff0700201b84000001780025
:10364800112620003011200046ff0700201b8400af
:1036580000017800012020000010200041ff070031
:10366800201b840000017800e1192000301120009f
:103678003cff0700201b840000017800a1142000f3
:10368800a014200037ff0700201b840000017800e9
:1036980031112000e019200032ff0700201b8400b0
:1036a8000001780001102000f01f20002dff070006
:1036b800201b840000017800311120001026200012
:1036c80028ff0700201b840000017800a1142000b7
:1036d800502b200023ff0700201b840000017800e6
:1036e800e1192000c02e20001eff0700201b8400c7
:1036f80000017800012020000030200019ff070099
:10370800201b84000001780011262000c02e200014
:1037180014ff0700201b840000017800512b2000b3
:10372800502b20000fff07001e0fe8001e00780036
:10373800e40f5000a7ff34000080fa0000000600e4
:103748000000fa00a04080000080fa000000060097
:103758000000fa00b04080000080fa000000060077
:103768000000fa00213a8000f08f2f0000806000ee
:10377800203a880017e2a9001742a9001722a800da
:1037880017e2a80000000000c1108000000024001b
:10379800008060000000e000fbff3a000080fa00b3
:1037a800000006000000fa0017e2a900d009200076
:1037b800a010880017e2a8000080fa0000000600a8
:1037c8000200fa00004f780011479800000000003e
:1037d800c110800000002400008060000000e000ac
:1037e800fbff3a001602a80000000000b01080009d
:1037f800610060000000e000fcff3a0040b6840071
:10380800901088008a40a900000000005004800041
:10381800640060000000e000fcff320000000000cf
:10382800c0108000610060000000e000fcff3a006a
:10383800c110800000002800008060000000e00047
:10384800f7ff3a001e00fb00901088008a40a9008c
:103858000000000050048000640060000000e000e8
:10386800fcff320000000000c01080006100600012
:103878000000e000fcff3a00c110800000002800b2
:10388800008060000000e000f7ff3a001e40900052
:103898000000fb00901088008a40a900000000008a
:1038a80050048000640060000000e000fcff32006b
:1038b80000000000c0108000610060000000e0000f
:1038c800fcff3a00c1108000000028000080600062
:1038d8000000e000f7ff3a001642a80000000000d0
:1038e800b0108000640060000000e000fcff3a00b7
:1038f8000080fa00000006000000fa0011c0b300c2
:103908000040eb00aeff07000080fa000000060050
:103918000e00fa0092ff0700a2ff070060c0b30084
:103928002047980050c0b30020479800a0c3b300b8
:103938003047980090c0b30040479800ae409000d0
:1039480051479800e0c1b3006047980090c3b300a6
:1039580070479800b0c1b300004f9800e0c6b300ac
:10396800104f980060c5b300204f9800a0c7b3005f
:10397800304f980080c3b300404f9800f0c0b300a8
:10398800504f98000000eb00000f78000900370046
:10399800630047001e004000104078008040780017
:1039a8000040eb0086ff0700500020008e01070052
:1039b8001e0fe8001e007800ea0f5000f4ff3400e4
:1039c800cdff07000080fa00000006000200fa00a0
:1039d800004f78009e40780000c4b30078ff0700cd
:1039e8000080fa00000006000400fa0010079800a2
:1039f8000000eb00000f7800060037001e0078007a
:103a08009e0090000080400010407800efff070003
:103a18001e0fe8001e0078009e0090000080400005
:103a2800104078000004e000f4ff3a000080fa003b
:103a3800000006000800fa00300798008e007800a1
:103a48003e009000380007000e007800e6ff0700ef
:103a58000080fa00000006000000fa00a1c3b300cd
:103a68000040eb0056ff0700b1c1b3000040eb0077
:103a780053ff0700c1c3b3000040eb0050ff07002d
:103a88000080fa00000006000000fa00a1c3b3009d
:103a98000040eb004aff070021c7b3000040eb00dd
:103aa80047ff0700c1c0b30000c4b30044ff0700cc
:103ab800c1c3b3000040eb0041ff07000080fa00db
:103ac800000006000600fa00100798002107980079
:103ad8001e00900000407800c400dd002e00900019
:103ae8000040780080c0400000c8b30000c040001b
:103af800004f78001e4078006a404000004f780070
:103b08009e4078000040eb002dff07000080fa007f
:103b1800000006000000fa00c8c2a900ccc2a90033
:103b28000080fa00000006000a00fa00300798003a
:103b3800410798000000eb00000f78003e0090005d
:103b48000000e0001a003a001e007800ce00900045
:103b58000080400001c3b300014878001e0fe80050
:103b6800160037001e007800ce00900080814000cb
:103b78003e019000d0cc2c000010b8004308de00b5
:103b88006a00b90000007800000051000040780089
:103b98000043b000804978001e0fe800be00900086
:103ba800d0cc2c000008b8004308de00300798008d
:103bb8003e0090000000e000eaff3a001e00780096
:103bc800ce009000008040008040eb000148780063
:103bd8000000eb0010079800190037001e00900045
:103be800ce00900000804000904078004147980047
:103bf8001e009000ce009000008040009e009000c3
:103c08009e8010008100e9004e0190008100410073
:103c180091407800014878001e0090001e001000b6
:103c28000000e900ce00900000804000ce409000e7
:103c3800014878001e0090000000e8001007980076
:103c48001e007800cf00de00008040000080d10018
:103c5800800078001e009000808f5000dfff3c003d
:103c68000080fa00000006000200fa000000eb00e5
:103c7800000f78000d0037001e007800800040001b
:103c8800c0812000008040008000eb00010878001f
:103c98001e00780080004000c09120000080400095
:103ca8008000eb00010878001e0fe800f0072000f4
:103cb8009e007800808f5000efff34000080fa00eb
:103cc800000006000a00fa00400798000040800043
:103cd8000000e8000040880001408000f007200054
:103ce800808f5000010036000028ef00004080005f
:103cf80080004000c081200000804000ce0090007d
:103d0800010878006000b800008fbe000000eb00da
:103d18002007980013003700014080002e00900013
:103d2800008050000108200080804000f00720003b
:103d380000806000300798003e009000800040003e
:103d4800c081200000804000100078008000eb0057
:103d58001e0f40005e9748002e0090000000e8000b
:103d680020079800c0408000ae009000808f50006f
:103d7800e9ff3500c0408000cf80de000001be00b2
:103d88001e00be003cf20700204088003140880039
:103d98000080fa00000006000a00fa0040079800b8
:103da800104080000000e8001040880011408000aa
:103db800f0072000808f5000010036000228ef0035
:103dc8001040800080004000c0912000008040002a
:103dd800ce009000010878006000b800008fbe0097
:103de8000000eb0020079800130037001140800006
:103df8002e009000008050000108200080804000c4
:103e0800f007200000806000300798003e00900016
:103e180080004000c0912000008040001000780021
:103e28008000eb001e0f40005e9748002e009000b7
:103e38000000e80020079800c0408000ae00900015
:103e4800808f5000e9ff3500c0408000cf80de0041
:103e58000001be001e00be0007f2070040408800b7
:103e6800514088000080fa00000006000000fa00b7
:103e7800c9a2a8002d63a900c982a8002d83a900a2
:103e8800400e2000001988004040200010198800ca
:103e980010f0210020198800008021008019880076
:103ea80001198000f0cf2f00008060000019880001
:103eb80085a0a90095a0a80051058000f0f82f0062
:103ec800008060000040a0005005880021e3a800a1
:103ed8000080fa00000006000000fa0018fe070043
:103ee800804088000080fa00000006000000fa0008
:103ef80017fe0700904088000080fa0000000600c6
:103f08000000fa0058ff0700a1fb0700dafb0700d2
:103f180000ff07007efe0700d4ff0700000028000e
:103f2800fcfb07000000280010fc0700c0b5840057
:103f38002d000700d04080000000e00003003200a0
:103f4800a0fd07001a28ef00faff37001000200034
:103f580051fd0700c0b584002300070060168000eb
:103f68004600de00614060000004a200614060007d
:103f78000080fb00610060004600dd0061168000e3
:103f88000160a1000100700060168800e9ff370099
:020000040000fa
:103f98001c080000000200000000000018080000d3
:103fa80002000000020000000300000000080000fa
:103fb8000c000000000000001a08000002000000c9
:103fc80000000000140800000400000002000000c7
:103fd800ff03ff00030000000c08000008000000b9
:083fe8000000000000000000d1
:020000040000fa
:103ff0000200fa00000f7800020037007e3e090040
:10400000000000001e00780000f0a7000000ea0099
:104010000000ea004f00de00004078001e0fe900bb
:104020000004e000f5ff3a000080fa0000000600fe
:020000040000fa
:020000040001f9
:0457f8000ff90000a5
:020000040000fa
:020000040001f9
:0457fc007f3f0000eb
:00000001FF
