:020000040000fa
:080000000002040000000000f2
:020000040000fa
:04000800c80200002a
:020000040000fa
:04000c00c802000026
:020000040000fa
:04001000c802000022
:020000040000fa
:04001400c80200001e
:020000040000fa
:04001800c80200001a
:020000040000fa
:04001c00c802000016
:020000040000fa
:04002000c802000012
:020000040000fa
:04002400c80200000e
:020000040000fa
:04002800c80200000a
:020000040000fa
:04002c00c802000006
:020000040000fa
:04003000c802000002
:020000040000fa
:04003400c8020000fe
:020000040000fa
:04003800c8020000fa
:020000040000fa
:04003c00c8020000f6
:020000040000fa
:04004000c8020000f2
:020000040000fa
:04004400c8020000ee
:020000040000fa
:04004800c8020000ea
:020000040000fa
:04004c00c8020000e6
:020000040000fa
:04005000c8020000e2
:020000040000fa
:04005400c8020000de
:020000040000fa
:04005800c8020000da
:020000040000fa
:04005c00c8020000d6
:020000040000fa
:04006000c8020000d2
:020000040000fa
:04006400c8020000ce
:020000040000fa
:04006800c8020000ca
:020000040000fa
:04006c00c8020000c6
:020000040000fa
:04007000c8020000c2
:020000040000fa
:04007400c8020000be
:020000040000fa
:04007800c8020000ba
:020000040000fa
:04007c00c8020000b6
:020000040000fa
:04008000c8020000b2
:020000040000fa
:04008400c8020000ae
:020000040000fa
:04008800c8020000aa
:020000040000fa
:04008c00c8020000a6
:020000040000fa
:04009000c8020000a2
:020000040000fa
:04009400c80200009e
:020000040000fa
:04009800c80200009a
:020000040000fa
:04009c00c802000096
:020000040000fa
:0400a000c802000092
:020000040000fa
:0400a400c80200008e
:020000040000fa
:0400a800c80200008a
:020000040000fa
:0400ac00c802000086
:020000040000fa
:0400b000c802000082
:020000040000fa
:0400b400c80200007e
:020000040000fa
:0400b800c80200007a
:020000040000fa
:0400bc00c802000076
:020000040000fa
:0400c000c802000072
:020000040000fa
:0400c400c80200006e
:020000040000fa
:0400c800c80200006a
:020000040000fa
:0400cc00c802000066
:020000040000fa
:0400d000c802000062
:020000040000fa
:0400d400c80200005e
:020000040000fa
:0400d800c80200005a
:020000040000fa
:0400dc00c802000056
:020000040000fa
:0400e000c802000052
:020000040000fa
:0400e400c80200004e
:020000040000fa
:0400e800c80200004a
:020000040000fa
:0400ec00c802000046
:020000040000fa
:0400f000c802000042
:020000040000fa
:0400f400c80200003e
:020000040000fa
:0400f800c80200003a
:020000040000fa
:0400fc00c802000036
:020000040000fa
:04010000c802000031
:020000040000fa
:04010400c80200002d
:020000040000fa
:04010800c802000029
:020000040000fa
:04010c00c802000025
:020000040000fa
:04011000c802000021
:020000040000fa
:04011400c80200001d
:020000040000fa
:04011800c802000019
:020000040000fa
:04011c00c802000015
:020000040000fa
:04012000c802000011
:020000040000fa
:04012400c80200000d
:020000040000fa
:04012800c802000009
:020000040000fa
:04012c00c802000005
:020000040000fa
:04013000c802000001
:020000040000fa
:04013400c8020000fd
:020000040000fa
:04013800c8020000f9
:020000040000fa
:04013c00c8020000f5
:020000040000fa
:04014000c8020000f1
:020000040000fa
:04014400c8020000ed
:020000040000fa
:04014800c8020000e9
:020000040000fa
:04020800c802000028
:020000040000fa
:04020c00c802000024
:020000040000fa
:04021000c802000020
:020000040000fa
:04021400c80200001c
:020000040000fa
:04021800c802000018
:020000040000fa
:04021c00c802000014
:020000040000fa
:04022000c802000010
:020000040000fa
:04022400c80200000c
:020000040000fa
:04022800c802000008
:020000040000fa
:04022c00c802000004
:020000040000fa
:04023000c802000000
:020000040000fa
:04023400c8020000fc
:020000040000fa
:04023800c8020000f8
:020000040000fa
:04023c00c8020000f4
:020000040000fa
:04024000c8020000f0
:020000040000fa
:04024400c8020000ec
:020000040000fa
:04024800c8020000e8
:020000040000fa
:04024c00c8020000e4
:020000040000fa
:04025000c8020000e0
:020000040000fa
:04025400c8020000dc
:020000040000fa
:04025800c8020000d8
:020000040000fa
:04025c00c8020000d4
:020000040000fa
:04026000c8020000d0
:020000040000fa
:04026400c8020000cc
:020000040000fa
:04026800c8020000c8
:020000040000fa
:04026c00c8020000c4
:020000040000fa
:04027000c8020000c0
:020000040000fa
:04027400c8020000bc
:020000040000fa
:04027800c8020000b8
:020000040000fa
:04027c00c8020000b4
:020000040000fa
:04028000c8020000b0
:020000040000fa
:04028400c8020000ac
:020000040000fa
:04028800c8020000a8
:020000040000fa
:04028c00c8020000a4
:020000040000fa
:04029000c8020000a0
:020000040000fa
:04029400c80200009c
:020000040000fa
:04029800c802000098
:020000040000fa
:04029c00c802000094
:020000040000fa
:0402a000c802000090
:020000040000fa
:0402a400c80200008c
:020000040000fa
:0402a800c802000088
:020000040000fa
:0402ac00c802000084
:020000040000fa
:0402b000c802000080
:020000040000fa
:0402b400c80200007c
:020000040000fa
:0402b800c802000078
:020000040000fa
:0402bc00c802000074
:020000040000fa
:0402c000c802000070
:020000040000fa
:0402c400c80200006c
:020000040000fa
:0402c800c802000068
:020000040000fa
:0402cc00c802000064
:020000040000fa
:0402d000c802000060
:020000040000fa
:0402d400c80200005c
:020000040000fa
:0402d800c802000058
:020000040000fa
:0402dc00c802000054
:020000040000fa
:0402e000c802000050
:020000040000fa
:0402e400c80200004c
:020000040000fa
:0402e800c802000048
:020000040000fa
:0402ec00c802000044
:020000040000fa
:0402f000c802000040
:020000040000fa
:0402f400c80200003c
:020000040000fa
:0402f800c802000038
:020000040000fa
:0402fc00c802000034
:020000040000fa
:04030000c80200002f
:020000040000fa
:04030400c80200002b
:020000040000fa
:04030800c802000027
:020000040000fa
:04030c00c802000023
:020000040000fa
:04031000c80200001f
:020000040000fa
:04031400c80200001b
:020000040000fa
:04031800c802000017
:020000040000fa
:04031c00c802000013
:020000040000fa
:04032000c80200000f
:020000040000fa
:04032400c80200000b
:020000040000fa
:04032800c802000007
:020000040000fa
:04032c00c802000003
:020000040000fa
:04033000c8020000ff
:020000040000fa
:04033400c8020000fb
:020000040000fa
:04033800c8020000f7
:020000040000fa
:04033c00c8020000f3
:020000040000fa
:04034000c8020000ef
:020000040000fa
:04034400c8020000eb
:020000040000fa
:04034800c8020000e7
:020000040000fa
:100400000fd621000e7f22000e01880000000000a0
:10041000000020000000e000020032000001200087
:1004200020028800140007005b0007000000e000c5
:1004300003003a00e03120000100200002003700f4
:100440000000200001002000810f70000100320038
:1004500014000700000020000000e000020032004d
:1004600000000200000000004c1302000000000029
:100470000040da000000fe004440a90020012000f6
:100480000000e0000300320000002000a00188000e
:100490004440a800000006008a1f78008b1f7800e7
:1004a0000000060091018800800478000000eb0045
:1004b0001a003700e284440032a0b4009905ba0063
:1004c000e284440032a0b4009906ba00e2844400f9
:1004d00032a0b4000006eb00476fde00fd07b2005b
:1004e000636ce10003003a00ebff07000000eb0043
:1004f0000a003700606ce10004003a00005deb0088
:100500008b05e900fdff3e00040037006168e10053
:10051000010032000086eb000b00070019c7ba008b
:100520001905ba000e04e00003003a000a00e000da
:10053000e0ff3a0000000600fe07b2009e018800be
:100540008a047800f5ff3700395dba008b05e900b1
:100550000c003200295dba008b05e900080032006a
:100560000c00e00003003a00e284440032a0b40032
:10057000f5ff370019ddba008b05e900faff3a00f4
:100580008904e800e184440032a0b40000000600c1
:100590000040da000000fe0000000500839f6800b4
:1005a0000100e00002003d0060001000e080180043
:1005b0000300e00002003d0060011100e08119002d
:1005c000050007004f00e00002003b006000100043
:1005d000e0801800000006006022b800060220003b
:1005e0000000d0008180d2000482d2008582d20037
:1005f0000000a0000202520083825a000300310072
:100600000202420083824a000000a1000603e900c2
:08061000f3ff3a0000000600b0
:020000040000fa
:100618003c000000780000007b0000003a09000060
:10062800061e0000391b00006e5600007a380000d4
:040638000f000000af
:020000040000fa
:10063c00120800004e13000002000000ffffea0049
:10064c00ffd6ff00c1ffad00ff99ff0084ff7000d3
:10065c00ff5cff0047ff3300ff1eff000afff600a0
:10066c00fee1fe00cdfeb900fea4fe0090fe7b0074
:10067c00fe67fe0053fe3e00fe2afe0016fe010041
:10068c00feedfd00d8fdc400fdb0fd009bfd870014
:10069c00fd73fd005efd4a00fd35fd0021fd0d00e2
:1006ac00fdf8fc00e4fcd000fcbbfc00a7fc9200b5
:1006bc00fc7efc006afc5500fc41fc002dfc180083
:1006cc00fc04fc00effbdb00fbc7fb00b2fb9e0055
:1006dc00fb8afb0075fb6100fb4cfb0038fb240024
:1006ec00fb0ffb00fbfae700fad2fa00befaa900f6
:1006fc00fa95fa0081fa6c00fa58fa0043fa2f00c6
:10070c00fa1bfa0006faf200f9def900c9f9b50095
:10071c00f9a0f9008cf97800f963f9004ff93a0067
:10072c00f926f90012f9fd00f8e9f800d4f8c00038
:10073c00f8acf80097f88300f86ff8005af8460008
:10074c00f831f8001df80900f8f4f700e0f7cb00d9
:10075c00f7b7f700a3f78e00f77af70065f75100ab
:10076c00f73df70028f71400f7fff600ebf6d7007b
:10077c00f6c2f600aef69900f685f60071f65c004e
:10078c00f648f60033f61f00f60af600f6f5e2001e
:10079c00f5cdf500b9f5a400f590f5007cf56700f2
:1007ac00f553f5003ef52a00f516f50001f5ed00c0
:1007bc00f4d8f400c4f4af00f49bf40087f4720096
:1007cc00f45ef40049f43500f420f4000cf4f80065
:1007dc00f3e3f300cff3ba00f3a6f30091f37d003b
:1007ec00f369f30054f34000f32bf30017f302000a
:1007fc00f3eef200daf2c500f2b1f2009cf28800de
:10080c00f273f2005ff24a00f236f20022f20d00af
:10081c00f2f9f100e4f1d000f1bbf100a7f1920084
:10082c00f17ef1006af15500f141f1002cf1180054
:10083c00f103f100eff0da00f0c6f000b1f09d002a
:10084c00f088f00074f06000f04bf00037f02200fc
:10085c00f00ef000f9efe500efd0ef00bcefa700d1
:10086c00ef93ef007eef6a00ef55ef0041ef2c00a5
:10087c00ef18ef0004efef00eedbee00c6eeb20077
:10088c00ee9dee0089ee7400ee60ee004bee37004c
:10089c00ee22ee000eeef900ede5ed00d0edbc0021
:1008ac00eda7ed0093ed7e00ed6aed0055ed4100f6
:1008bc00ed2ced0018ed0300edefec00daecc600ca
:1008cc00ecb1ec009dec8800ec73ec005fec4a00a2
:1008dc00ec36ec0021ec0d00ecf8eb00e4ebcf0077
:1008ec00ebbbeb00a6eb9200eb7deb0069eb54004d
:1008fc00eb40eb002beb1600eb02eb00edead90022
:10090c00eac4ea00b0ea9b00ea87ea0072ea5e00f9
:10091c00ea49ea0034ea2000ea0bea00f7e9e200cf
:10092c00e9cee900b9e9a500e990e9007be96700a7
:10093c00e952e9003ee92900e915e90000e9eb007c
:10094c00e8d7e800c2e8ae00e899e80085e8700056
:10095c00e85be80047e83200e81ee80009e8f4002c
:10096c00e7e0e700cbe7b700e7a2e7008de7790007
:10097c00e764e70050e73b00e726e70012e7fd00dd
:10098c00e6e9e600d4e6bf00e6abe60096e68100b9
:10099c00e66de60058e64400e62fe6001ae606008f
:1009ac00e6f1e500dce5c800e5b3e5009ee58a006c
:1009bc00e575e50061e54c00e537e50023e50e0043
:1009cc00e5f9e400e5e4d000e4bbe400a7e4920020
:1009dc00e47de40069e45400e43fe4002be41600f9
:1009ec00e401e400ede3d800e3c3e300afe39a00d5
:1009fc00e385e30071e35c00e347e30032e31e00b0
:100a0c00e309e300f4e2e000e2cbe200b6e2a2008c
:100a1c00e28de20078e26300e24fe2003ae2250068
:100a2c00e211e200fce1e700e1d2e100bee1a90045
:100a3c00e194e1007fe16b00e156e10041e12d0022
:100a4c00e118e10003e1ee00e0dae000c5e0b000ff
:100a5c00e09be00087e07200e05de00048e03300de
:100a6c00e01fe0000ae0f500dfe0df00ccdfb700bc
:100a7c00dfa2df008ddf7900df64df004fdf3a009b
:100a8c00df25df0011dffc00dee7de00d2debd007b
:100a9c00dea9de0094de7f00de6ade0055de41005a
:100aac00de2cde0017de0200deeddd00d8ddc4003a
:100abc00ddafdd009add8500dd70dd005bdd47001c
:100acc00dd32dd001ddd0800ddf3dc00dedcc900fd
:100adc00dcb5dc00a0dc8b00dc76dc0061dc4c00df
:100aec00dc37dc0023dc0e00dcf9db00e4dbcf00c0
:100afc00dbbadb00a5db9000db7bdb0067db5200a5
:100b0c00db3ddb0028db1300dbfeda00e9dad40086
:100b1c00dabfda00aada9500da81da006cda57006b
:100b2c00da42da002dda1800da03da00eed9d9004d
:100b3c00d9c4d900afd99a00d985d90070d95b0036
:100b4c00d946d90031d91d00d908d900f3d8de0017
:100b5c00d8c9d800b4d89f00d88ad80075d86000fe
:100b6c00d84bd80036d82100d80cd800f7d7e200e3
:100b7c00d7cdd700b8d7a300d78ed70079d76400cc
:100b8c00d74fd7003ad72500d710d700fbd6e500b2
:100b9c00d6d0d600bbd6a600d691d6007cd66700a0
:100bac00d652d6003dd62800d613d600fed5e90085
:100bbc00d5d4d500bfd5aa00d595d5007fd56a0070
:100bcc00d555d50040d52b00d516d50001d5ec0058
:100bdc00d4d7d400c2d4ac00d497d40082d46d0046
:100bec00d458d40043d42e00d419d40003d4ee002e
:100bfc00d3d9d300c4d3af00d39ad30085d36f001d
:100c0c00d35ad30045d33000d31bd30006d3f00006
:100c1c00d2dbd200c6d2b100d29cd20087d27100f6
:100c2c00d25cd20047d23200d21dd20007d2f200e1
:100c3c00d1ddd100c8d1b200d19dd10088d17300d3
:100c4c00d15ed10048d13300d11ed10009d1f300bf
:100c5c00d0ded000c9d0b400d09ed00089d07400b2
:100c6c00d05fd00049d03400d01fd00009d0f400a0
:100c7c00cfdfcf00cacfb400cf9fcf008acf740094
:100c8c00cf5fcf004acf3400cf1fcf000acff40084
:100c9c00cedfce00caceb400ce9fce008ace74007a
:100cac00ce5fce004ace3400ce1fce000acef4006a
:100cbc00cddfcd00c9cdb400cd9fcd0089cd740062
:100ccc00cd5fcd0049cd3400cd1ecd0009cdf30054
:100cdc00ccdecc00c9ccb300cc9ecc0088cc73004d
:100cec00cc5ecc0048cc3300cc1dcc0008ccf20040
:100cfc00cbddcb00c7cbb200cb9ccb0087cb71003c
:100d0c00cb5ccb0046cb3100cb1ccb0006cbf1002f
:100d1c00cadbca00c6cab000ca9aca0085ca6f002c
:100d2c00ca5aca0044ca2f00ca19ca0004caee0023
:100d3c00c9d9c900c3c9ae00c998c90082c96d0020
:100d4c00c957c90042c92c00c917c90001c9eb0019
:100d5c00c8d6c800c0c8ab00c895c8007fc86a0018
:100d6c00c854c8003fc82900c813c800fec7e80013
:100d7c00c7d2c700bdc7a700c791c7007cc7660014
:100d8c00c750c7003bc72500c70fc700fac6e40011
:100d9c00c6cec600b9c6a300c68dc60078c6620012
:100dac00c64cc60036c62100c60bc600f5c5df0012
:100dbc00c5cac500b4c59e00c588c50073c55d0015
:100dcc00c547c50031c51c00c506c500f0c4da0016
:100ddc00c4c4c400afc49900c483c4006dc457001c
:100dec00c442c4002cc41600c400c400eac3d4001e
:100dfc00c3bfc300a9c39300c37dc30067c3510025
:100e0c00c33bc30026c31000c3fac200e4c2ce0029
:100e1c00c2b8c200a2c28c00c276c20060c24b0033
:100e2c00c235c2001fc20900c2f3c100ddc1c70038
:100e3c00c1b1c1009bc18500c16fc10059c1430044
:100e4c00c12dc10017c10100c1ebc000d5c0bf004e
:100e5c00c0a9c00093c07d00c067c00051c03b005a
:100e6c00c025c0000fc0f900bfe3bf00cdbfb70065
:100e7c00bfa1bf008bbf7500bf5ebf0048bf320073
:100e8c00bf1cbf0006bff000bedabe00c4beae0081
:100e9c00be97be0081be6b00be55be003fbe290092
:100eac00be13be00fcbde600bdd0bd00babda400a3
:100ebc00bd8ebd0077bd6100bd4bbd0035bd1f00b3
:100ecc00bd08bd00f2bcdc00bcc6bc00afbc9900c8
:100edc00bc83bc006dbc5600bc40bc002abc1400da
:100eec00bcfdbb00e7bbd100bbbabb00a4bb8e00f2
:100efc00bb78bb0061bb4b00bb35bb001ebb080005
:100f0c00bbf2ba00dbbac500baaeba0098ba82001e
:100f1c00ba6bba0055ba3f00ba28ba0012bafb0035
:100f2c00b9e5b900cfb9b800b9a2b9008bb9750051
:100f3c00b95eb90048b93100b91bb90005b9ee006a
:100f4c00b8d8b800c1b8ab00b894b8007eb8670088
:100f5c00b851b8003ab82400b80db800f7b7e000a3
:100f6c00b7c9b700b3b79c00b786b7006fb75900c5
:100f7c00b742b7002bb71500b7feb600e8b6d100e4
:100f8c00b6bab600a4b68d00b677b60060b6490006
:100f9c00b633b6001cb60500b6efb500d8b5c10027
:100fac00b5abb50094b57d00b566b50050b539004c
:100fbc00b522b5000cb5f500b4deb400c7b4b10071
:100fcc00b49ab40083b46c00b456b4003fb4280097
:100fdc00b411b400fab3e400b3cdb300b6b39f00c0
:100fec00b388b30071b35b00b344b3002db31600e8
:100ffc00b3ffb200e8b2d100b2bab200a3b28d0016
:10100c00b276b2005fb24800b231b2001ab203003d
:10101c00b2ecb100d5b1be00b1a7b10090b179006e
:10102c00b162b1004bb13400b11db10006b1ef009b
:10103c00b0d8b000c1b0aa00b093b0007cb06500cd
:10104c00b04eb00037b02000b009b000f1afda00fc
:10105c00afc3af00acaf9500af7eaf0067af500031
:10106c00af38af0021af0a00aff3ae00dcaec50065
:10107c00aeadae0096ae7f00ae68ae0050ae39009d
:10108c00ae22ae000baef300addcad00c5adae00d4
:10109c00ad96ad007fad6800ad51ad0039ad22000d
:1010ac00ad0bad00f3acdc00acc5ac00adac960048
:1010bc00ac7eac0067ac5000ac38ac0021ac090085
:1010cc00acf2ab00dbabc300abacab0094ab7d00c4
:1010dc00ab65ab004eab3700ab1fab0008abf00001
:1010ec00aad9aa00c1aaaa00aa92aa007aaa630045
:1010fc00aa4baa0034aa1c00aa05aa00eda9d50087
:10110c00a9bea900a6a98f00a977a9005fa94800cc
:10111c00a930a90018a90100a9e9a800d1a8ba0012
:10112c00a8a2a8008aa87300a85ba80043a82c005a
:10113c00a814a800fca7e400a7cda700b5a79d00a4
:10114c00a785a7006da75600a73ea70026a70e00ef
:10115c00a7f6a600dea6c700a6afa60097a67f003e
:10116c00a667a6004fa63700a61fa60007a6f0008c
:10117c00a5d8a500c0a5a800a590a50078a56000dd
:10118c00a548a50030a51800a500a500e8a4d0002e
:10119c00a4b8a400a0a48800a46fa40057a43f0086
:1011ac00a427a4000fa4f700a3dfa300c7a3af00dc
:1011bc00a396a3007ea36600a34ea30036a31e0035
:1011cc00a305a300eda2d500a2bda200a5a28c0090
:1011dc00a274a2005ca24400a22ba20013a2fb00ea
:1011ec00a1e2a100caa1b200a199a10081a169004c
:1011fc00a150a10038a12000a107a100efa0d600aa
:10120c00a0bea000a5a08d00a075a0005ca044000d
:10121c00a02ba00013a0fa009fe29f00c99fb10071
:10122c009f989f00809f67009f4e9f00369f1d00d8
:10123c009f059f00ec9ed3009ebb9e00a29e8a0041
:10124c009e719e00589e40009e279e000e9ef500ab
:10125c009ddd9d00c49dab009d939d007a9d61001a
:10126c009d489d002f9d17009dfe9c00e59ccc0089
:10127c009cb39c009b9c82009c699c00509c3700fa
:10128c009c1e9c00059cec009bd39b00ba9ba2006f
:10129c009b899b00709b57009b3e9b00259b0c00e1
:1012ac009bf39a00da9ac0009aa79a008e9a75005e
:1012bc009a5c9a00439a2a009a119a00f899df00d6
:1012cc0099c59900ac999300997a99006199470056
:1012dc00992e99001599fc0098e39800c998b000d4
:1012ec00989798007d986400984b98003198180056
:1012fc0098ff9700e597cc0097b3970099978000db
:10130c00976697004d973300971a97000197e7005f
:10131c0096ce9600b4969a009681960067964e00eb
:10132c00963496001b96010096e89500ce95b40075
:10133c00959b950081956700954e950034951a0004
:10134c0095019500e794cd0094b394009a94800095
:10135c00946694004c94320094199400ff93e50029
:10136c0093cb9300b1939700937d930064934a00c1
:10137c00933093001693fc0092e29200c892ae0058
:10138c00929492007a926000924692002c921200f3
:10139c0092f79100dd91c30091a991008f91750096
:1013ac00915b910040912600910c9100f290d80035
:1013bc0090bd9000a3908900906e900054903a00dc
:1013cc00902090000590eb008fd08f00b68f9c0082
:1013dc008f818f00678f4c008f328f00178ffd002d
:1013ec008ee38e00c88ead008e938e00788e5e00dc
:1013fc008e438e00298e0e008ef38d00d98dbe008b
:10140c008da38d00898d6e008d538d00398d1e003e
:10141c008d038d00e88cce008cb38c00988c7d00f5
:10142c008c628c00478c2d008c128c00f78bdc00ae
:10143c008bc18b00a68b8b008b708b00558b3a006d
:10144c008b1f8b00048be9008ace8a00b38a98002c
:10145c008a7d8a00628a46008a2b8a00108af500ef
:10146c0089da8900be89a300898889006d895100b9
:10147c00893689001b89ff0088e48800c988ad0083
:10148c008892880076885b00884088002488090050
:10149c0088ed8700d287b600879b87007f87630023
:1014ac00874887002c87110087f58600d986be00f7
:1014bc0086a2860086866a00864f860033861700d1
:1014cc0086fb8500e085c40085a885008c857000ae
:1014dc008554850038851c0085008500e484c8008f
:1014ec0084ac840090847400845884003c84200074
:1014fc0084048400e883cc0083b08300938377005a
:10150c00835b83003f83220083068300ea82ce0044
:10151c0082b1820095827800825c82004082230036
:10152c0082078200ea81ce0081b18100958178002a
:10153c00815c81003f81230081068100e980cd0020
:10154c0080b0800093807700805a80003d8000003e
:10155c000014000028003d000051000065007a00d6
:10156c00008e0000a300b70000cb0000e000f400e8
:10157c00000901001d013100014601005a016f00f4
:10158c00018301009701ac0001c00100d401e90006
:10159c0001fd010012022600023a02004f02630014
:1015ac00027702008c02a00002b50200c902dd0025
:1015bc0002f2020006031a00032f03004303570034
:1015cc00036c03008003950003a90300bd03d20044
:1015dc0003e60300fa030f000423040037044c0055
:1015ec000460040074048900049d0400b104c60066
:1015fc0004da0400ee040300051705002b053f0078
:10160c000554050068057c0005910500a505b90089
:10161c0005ce0500e205f600050a06001f0633009c
:10162c00064706005c067000068406009806ad00ae
:10163c0006c10600d506e90006fe060012072600c4
:10164c00073a07004e076300077707008b079f00d8
:10165c0007b40700c807dc0007f0070004081900ee
:10166c00082d080041085500086908007d08920003
:10167c0008a60800ba08ce0008e20800f6080b001d
:10168c00091f090033094700095b09006f09830032
:10169c0009970900ac09c00009d40900e809fc004d
:1016ac0009100a00240a38000a4c0a00600a740067
:1016bc000a880a009c0ab1000ac50a00d90aed0082
:1016cc000a010b00150b29000b3d0b00510b65009b
:1016dc000b790b008d0ba1000bb50b00c90bdd00ba
:1016ec000bf10b00040c18000c2c0c00400c5400db
:1016fc000c680c007c0c90000ca40c00b80ccc00fa
:10170c000ce00c00f30c07000d1b0d002f0d43001b
:10171c000d570d006b0d7e000d920d00a60dba003d
:10172c000dce0d00e20df5000d090e001d0e310061
:10173c000e450e00580e6c000e800e00940ea70085
:10174c000ebb0e00cf0ee3000ef60e000a0f1e00ad
:10175c000f310f00450f59000f6c0f00800f9400d4
:10176c000fa70f00bb0fcf000fe20f00f60f090001
:10177c00101d100031104400105810006b107f0029
:10178c0010931000a610ba0010cd1000e110f40058
:10179c00100811001b112f00114211005611690085
:1017ac00117d11009011a40011b71100cb11de00b6
:1017bc0011f1110005121800122c12003f125200e8
:1017cc001266120079128c0012a01200b312c7001c
:1017dc0012da1200ed1200001314130027133a0052
:1017ec00134e130061137400138713009b13ae0088
:1017fc0013c11300d413e70013fb13000e142100c4
:10180c001434140047145a00146e140081149400fc
:10181c0014a71400ba14cd0014e01400f31406003d
:10182c00151915002d154000155315006615790076
:10183c00158c15009f15b20015c51500d815eb00b9
:10184c0015fd1500101623001636160049165c00ff
:10185c00166f16008216950016a81600ba16cd0043
:10186c0016e01600f3160600171917002b173e008a
:10187c001751170064177600178917009c17af00d3
:10188c0017c11700d417e70017f917000c181f0021
:10189c001831180044185700186918007c188e006d
:1018ac0018a11800b418c60018d91800eb18fe00bf
:1018bc001810190023193500194819005a196d0010
:1018cc00197f19009219a40019b71900c919db0066
:1018dc0019ee1900001a13001a251a00371a4a00bb
:1018ec001a5c1a006e1a81001a931a00a51ab80015
:1018fc001aca1a00dc1aee001a011b00131b250071
:10190c001b371b00491b5c001b6e1b00801b9200cd
:10191c001ba41b00b61bc8001bdb1b00ed1bff0030
:10192c001b111c00231c35001c471c00591c6b0090
:10193c001c7d1c008f1ca1001cb31c00c51cd700f7
:10194c001ce91c00fb1c0d001d1f1d00301d42005e
:10195c001d541d00661d78001d8a1d009c1dad00c8
:10196c001dbf1d00d11de3001df41d00061e180037
:10197c001e2a1e003b1e4d001e5f1e00701e8200a4
:10198c001e941e00a51eb7001ec91e00da1eec0018
:10199c001efe1e000f1f21001f321f00441f55008a
:1019ac001f671f00781f8a001f9b1f00ad1fbe0002
:1019bc001fd01f00e11ff2001f042000152027007c
:1019cc002038200049205b00206c20007d208f00f7
:1019dc0020a02000b120c30020d42000e520f60078
:1019ec002008210019212a00213b21004c215e00f6
:1019fc00216f21008021910021a22100b321c4007c
:101a0c0021d52100e621f700210822001a222b0003
:101a1c00223c22004d225e00226e22007f2290008a
:101a2c0022a12200b222c30022d42200e522f60019
:101a3c002207230017232800233923004a235b00a5
:101a4c00236c23007c238d00239e2300af23bf0037
:101a5c0023d02300e123f1002302240013242300cc
:101a6c002434240045245500246624007624870061
:101a7c0024972400a824b80024c92400da24ea00fe
:101a8c0024fa24000b251b00252c25003c254d0099
:101a9c00255d25006d257e00258e25009f25af0038
:101aac0025bf2500d025e00025f0250000261100db
:101abc00262126003126410026522600622672007d
:101acc00268226009226a20026b32600c326d30027
:101adc0026e32600f32603002713270023273300d1
:101aec00274327005327630027732700832793007e
:101afc0027a32700b327c30027d32700e327f3002e
:101b0c0027022800122822002832280042285200de
:101b1c00286128007128810028912800a028b00095
:101b2c0028c02800cf28df0028ef2800ff280e004f
:101b3c00291e29002d293d00294d29005c296c0006
:101b4c00297b29008b299a0029aa2900b929c900c7
:101b5c0029d82900e829f70029072a00162a260087
:101b6c002a352a00442a54002a632a00722a820049
:101b7c002a912a00a02ab0002abf2a00ce2add0012
:101b8c002aed2a00fc2a0b002b1a2b002a2b3900d9
:101b9c002b482b00572b66002b752b00842b9400a5
:101bac002ba32b00b22bc1002bd02b00df2bee0074
:101bbc002bfd2b000c2c1b002c2a2c00392c480044
:101bcc002c572c00662c75002c832c00922ca10019
:101bdc002cb02c00bf2cce002cdc2c00eb2cfa00f3
:101bec002c092d00182d26002d352d00442d5300c9
:101bfc002d612d00702d7f002d8d2d009c2dab00a7
:101c0c002db92d00c82dd6002de52d00f42d020088
:101c1c002e112e001f2e2e002e3c2e004b2e590066
:101c2c002e682e00762e85002e932e00a12eb0004d
:101c3c002ebe2e00cd2edb002ee92e00f82e060037
:101c4c002f142f00232f31002f3f2f004d2f5c001e
:101c5c002f6a2f00782f86002f952f00a32fb1000d
:101c6c002fbf2f00cd2fdb002fe92f00f82f060000
:101c7c003014300022303000303e30004c305a00ee
:101c8c00306830007630840030923000a030ae00e6
:101c9c0030bc3000ca30d80030e63000f3300100e0
:101cac00310f31001d312b003139310046315400d8
:101cbc003162310070317e00318b31009931a700d7
:101ccc0031b43100c231d00031dd3100eb31f900db
:101cdc003106320014322200322f32003d324a00db
:101cec003258320065327300328132008e329c00e1
:101cfc0032a93200b632c40032d13200df32ec00ed
:101d0c0032fa320007331400332233002f333c00f5
:101d1c00334a330057336400337233007f338c0003
:101d2c00339a3300a733b40033c13300ce33dc0015
:101d3c0033e93300f6330300341034001d342b0028
:101d4c003438340045345200345f34006c3479003c
:101d5c00348634009334a00034ad3400ba34c70058
:101d6c0034d43400e134ee0034fb34000835150073
:101d7c00352235002e353b0035483500553562008f
:101d8c00356f35007b35880035953500a235ae00b2
:101d9c0035bb3500c835d50035e13500ee35fb00d7
:101dac003507360014362100362d36003a364700fa
:101dbc003653360060366c00367936008536920024
:101dcc00369f3600ab36b80036c43600d136dd004f
:101ddc0036e93600f6360200370f37001b3728007d
:101dec003734370040374d003759370065377200ac
:101dfc00377e37008a37970037a33700af37bb00e1
:101e0c0037c83700d437e00037ec3700f937050016
:101e1c00381138001d3829003835380041384e004b
:101e2c00385a380066387200387e38008a38960086
:101e3c0038a23800ae38ba0038c63800d238de00c6
:101e4c0038ea3800f6380200390e39001a39260003
:101e5c00393239003d3949003955390061396d0045
:101e6c003979390085399000399c3900a839b4008a
:101e7c0039bf3900cb39d70039e33900ee39fa00d4
:101e8c0039063a00113a1d003a293a00343a40001a
:101e9c003a4c3a00573a63003a6e3a007a3a860066
:101eac003a913a009d3aa8003ab43a00bf3acb00b6
:101ebc003ad63a00e23aed003af93a00043b100007
:101ecc003b1b3b00263b32003b3d3b00493b540057
:101edc003b5f3b006b3b76003b813b008d3b9800ae
:101eec003ba33b00ae3bba003bc53b00d03bdb0009
:101efc003be73b00f23bfd003b083c00133c1f0062
:101f0c003c2a3c00353c40003c4b3c00563c6100bc
:101f1c003c6d3c00783c83003c8e3c00993ca4001a
:101f2c003caf3c00ba3cc5003cd03c00db3ce6007e
:101f3c003cf13c00fc3c07003d123d001d3d2700e0
:101f4c003d323d003d3d48003d533d005e3d690046
:101f5c003d743d007e3d89003d943d009f3daa00af
:101f6c003db43d00bf3dca003dd53d00df3dea001c
:101f7c003df53d00003e0a003e153e00203e2a0085
:101f8c003e353e003f3e4a003e553e005f3e6a00f5
:101f9c003e753e007f3e8a003e943e009f3ea90067
:101fac003eb43e00be3ec9003ed33e00de3ee800dd
:101fbc003ef33e00fd3e08003f123f001d3f270050
:101fcc003f313f003c3f46003f503f005b3f6500c8
:101fdc003f703f007a3f84003f8e3f00993fa30043
:101fec003fad3f00b83fc2003fcc3f00d63fe100c1
:101ffc003feb3f00f53fff003f0000000c080000e6
:10200c0004000000020000000002000002000000ba
:10201c00100800000200000000000000601b00001f
:10202c000002000000000000000800000c0000008e
:08203c0000000000000000009c
:020000040000fa
:102044000200fa00000f7800020037007e3e09000b
:10205400000000001e00780000f0a7000000ea0065
:102064000000ea004f00de00004078001e0fe90087
:102074000004e000f5ff3a000080fa0000000600ca
:102084000000fa00213a8000f08f2f0000806000e9
:10209400203a8800113a8000f00b20000081600093
:1020a400600420007105200023742000804978001a
:1020b40081497800824978007136800000fe2f0043
:1020c400008060002001b300703688006136800013
:1020d400f00f2e00808060000030210001007000ad
:1020e40060368800103a8000000178000260a00089
:1020f40060042000710520002374200080497800ca
:1021040081497800824978000080eb0060198800da
:10211400c9c2a900c9a2a9000a21ef0000c429006c
:1021240070088800000128009008880000712200cf
:10213400000c8800e0002000200c88008481a900a5
:102144008621ef00e0002000500c88008a81a9005d
:102154000080fa00000006000200fa00000f780078
:102164001e0078008000eb0002fa20000289b9000a
:10217400020178006002b900840178000301410083
:1021840003fa20000300b800010141008200780036
:10219400f2ff2f00030020000ef907000000780072
:1021a400803eb000000c88000080fa0000000600a9
:1021b4000200fa00000f78001e0078008000eb0097
:1021c40002062f000289b900020178008081eb0029
:1021d4000382b900840178000301410003062f0043
:1021e4000300b800010141008200780002062f00bc
:1021f400f3f920000000410081804900f2ff2f0024
:1022040003002000f3f8070000007800803eb000cf
:10221400300c88000080fa00000006001200fa006a
:10222400889fbe008a9fbe0070079800010f980027
:10223400fe0090000e089000810f50000100310054
:1022440001007800000f78009e00780070022000e2
:102254000088b90000007800000f78001e007800a4
:102264004500de00000f78007e0090006101b80098
:102274007e0090008000eb00009ab9000402780010
:10228400028bb90086027800050242000011b800f2
:1022940003024200840178000e0890006102b80035
:1022a4000e0890008000eb0000abb9000603780034
:1022b400048cb90088037800070343000020b800a9
:1022c4000103430086007800020040008380480038
:1022d40010079800210798001e0078006101b800db
:1022e4002e0090006300b900000078009e0090006a
:1022f400600ab90084007800010040001e029000ca
:10230400310020000122b80005004000800278005e
:102314001e0078006103b8001e0078008000eb0006
:1023240000bcb90008047800068db9008a0478005e
:10233400090444000030b800010444008800780017
:1023440004004000858048004e0add004200de00a3
:1023540000007200c208de00009ab900040278008e
:10236400028bb90086027800050242000010b80012
:102374000102420084007800300798004107980069
:1023840030079800410798001e0078006101b800ea
:102394001e0078008000eb00009ab9000402780067
:1023a400028bb90086027800050242000010b800d2
:1023b40001024200840078006309b9000201780038
:1023c4006002b90084017800030141003300200059
:1023d4000300b80001014100820078001e01900052
:1023e400ae01900000004100818049004909dd00f0
:1023f4004700de0000007100c708de00e00f500057
:10240400e08f580002003a00100020000100200074
:10241400500798005e0090008000eb000001be00b1
:102424003e009000ce0090006af807004b0add00e1
:102434004500de0000007200c508de006007980059
:102444006e0090004f05be004f04be000080fa00ed
:10245400000006000400fa00000f7800110798003d
:102464009e0090001e0078006cff07008000400072
:102474002081200000804000100078000080fa00d5
:10248400000006000400fa00889fbe00000f7800d8
:10249400110798001e0090008000eb00c002dd00d0
:1024a400040020001e007800e10f500003003600f5
:1024b4001e0078008000eb000200370010002000ae
:1024c400010020000001be000400be0032f8070035
:1024d400f23f20000289b900020178006002b900cd
:1024e4008401780003014100f33f20000300b80099
:1024f4000101410082007800408cde00cf8cde00b8
:10250400080078004f04be000080fa0000000600b6
:102514000400fa00881f7800000f78001107980063
:102524001e0090009e0f50000f0031009e0090008e
:102534001e007800d3ff0700800040000036210011
:1025440000804000100478009e0090001e00780077
:10255400c0ff07000000d1008000540000002800e4
:10256400008040000d0037009e0078001e0090009f
:10257400c4ff0700800040000036210000804000b6
:10258400100078000004ea009e0090001e0078000d
:10259400b0ff07000000d100000054004f04780091
:1025a4000080fa00000006000000fa00804080006d
:1025b400e10f500015003200e10f500003003c0011
:1025c4000000e0000600320030003700e20f500047
:1025d40019003200e30f5000220032002b003700b4
:1025e4006140800030382000808f500004003e009d
:1025f400604080000000e80060408800230037004d
:1026040010002000804088002000370071408000c6
:1026140030382000808f500004003e00704080005d
:102624000000e800704088001800370020002000f7
:1026340080408800150037006140800000202000a1
:10264400808f500004003600604080000000e900e4
:10265400604088000d003700300020008040880072
:102664000a0037007140800000042000808f500071
:1026740004003600704080000000e90070408800cb
:10268400020037001028ef00000000000080fa006c
:10269400000006001200fa006901070078fe070036
:1026a40012010700b6000700e5000700000028003b
:1026b400a9fe070000002800bdfe0700baff0700be
:1026c4006040800001082000810f500001003100ab
:1026d40000082000000f7800714080001107980066
:1026e4009e0090001e007800ccfe07002007980092
:1026f4009e0090001e00780062ff070030079800db
:102704009e0090001e00780052ff070040079800ca
:102714009e0090001e0078007dff0700500798007f
:102724004e0090005d0107005e0090008e010700de
:1027340030db80000000e0000800320040408000f0
:10274400514080000000780083fe07002040800094
:10275400314080000000780095fe070011c0b300ee
:102764000040eb00380007008000eb000000eb00a5
:10277400ce0007006c004700800078005e009000e7
:10278400df0007006c004700980007008000eb00a2
:1027940020002000c50007006c004700800078007e
:1027a4004e009000d60007006c0047008f00070021
:1027b4004006200022fe0700601680004f00de0065
:1027c400004078000004a200614060000080fb002b
:1027d4004f00dd006116800001f0a10001007000cf
:1027e40060168800b5ff37000000fa00213a800027
:1027f400f08f2f0000806000203a880007e2a900d3
:102804000742a9000722a80007e2a8000000000070
:102814004110800000002400008060000000e000ff
:10282400fbff3a000080fa00000006000000fa00f6
:1028340007e2a900d00920002010880007e2a800c0
:102844000080fa00000006000200fa00004f780041
:10285400114798000000000041108000000024008f
:10286400008060000000e000fbff3a000602a800c0
:102874000000000030108000610060000000e000f3
:10288400fcff3a0070188400101088008620a9000c
:102894000a00370000000000401080006100600062
:1028a4000000e000fcff3a00411080000000280016
:1028b400008060000000e000f7ff3a003004800070
:1028c400620060000000e000f2ff32001e00fb0026
:1028d400101088008620a9000a00370000000000bc
:1028e40040108000610060000000e000fcff3a003e
:1028f4004110800000002800008060000000e0001b
:10290400f7ff3a0030048000620060000000e0003d
:10291400f2ff32001e4090000000fb0010108800ff
:102924008620a9000a003700000000004010800043
:10293400610060000000e000fcff3a0041108000ec
:1029440000002800008060000000e000f7ff3a006b
:1029540030048000620060000000e000f2ff3200fa
:102964000642a800000000003010800064006000ef
:102974000000e000fcff3a000080fa0000000600be
:102984000e00fa0098ff0700a8ff0700e2004700c6
:10299400223128000a000900b25878000000eb0038
:1029a400000f7800090037000e80e8001e00400088
:1029b40010407800804078000040eb00a2ff070040
:1029c400500020009efd07001e0fe8001e00780046
:1029d400ea0f5000f4ff340011c0b3000040eb00d4
:1029e40099ff07000080fa00000006000400fa00c6
:1029f400100798000000eb00000f78000800370073
:102a04001e0078009e009000008040001040780076
:102a14008040780000c4b3008bff07001e0fe8005d
:102a24001e0078009e009000008040001040780056
:102a34000004e000f2ff3a000080fa000000060003
:102a44000000fa00a1c3b3000040eb007eff0700c2
:102a5400b1c1b3000040eb007bff0700c1c3b3006a
:102a64000040eb0078ff07000080fa000000060039
:102a74000000fa00a1c3b3000040eb0072ff07009e
:102a840021c7b3000040eb006fff0700c1c0b300d3
:102a940000c4b3006cff0700c1c3b3000040eb00e7
:102aa40069ff07000080fa00000006000400fa0035
:102ab400000f7800110798001e007800004078008d
:102ac400c400dd001e0090000040780080c040007b
:102ad40000c8b30000c04000804078000040eb0014
:102ae40059ff07000080fa00000006000000fa0009
:102af400c9e2a900cde2a9000080fa0000000600a6
:102b04000a00fa0030079800410798000000eb0023
:102b1400000f78003e0090000000e0001a003a0028
:102b24001e007800ce0090000080400001c3b30076
:102b3400014878001e0fe800160037001e007800d8
:102b4400ce009000808140003e019000d0cc2c004b
:102b54000010b8004308de006a00b90000007800e5
:102b640000005100004078000043b0008049780024
:102b74001e0fe800be009000d0cc2c000008b80066
:102b84004308de00300798003e0090000000e0009b
:102b9400eaff3a001e007800ce009000008040005a
:102ba4008040eb00014878000000eb00100798001b
:102bb400190037001e009000ce00900000804000f5
:102bc40090407800414798001e009000ce0090008d
:102bd400008040009e0090009e8010008100e9006b
:102be4004e01900081004100914078000148780036
:102bf4001e0090001e0010000000e900ce009000ae
:102c040000804000ce409000014878001e009000f3
:102c14000000e800100798001e007800cf00de00d6
:102c2400008040000080d100800078001e009000e9
:102c3400808f5000dfff3c000080fa000000060097
:102c44000200fa000000eb00000f78000d003700ce
:102c54001e0078008000400000b621000080400083
:102c64008000eb00010878001e007800800040001e
:102c740000c62100008040008000eb0001087800bd
:102c84001e0fe800f00720009e007800808f50009f
:102c9400efff34000080fa00000006000a00fa008a
:102ca40040079800004080000000e80000408800d1
:102cb40001408000f0072000808f500001003600a2
:102cc4000028ef00004080008000400000b6210092
:102cd40000804000ce009000010878006000b80039
:102ce400008fbe000000eb0020079800130037009f
:102cf400014080002e009000008050000108200058
:102d040080804000f00720000080600030079800b9
:102d14003e0090008000400000b62100008040008a
:102d2400100078008000eb001e0f40005e97480002
:102d34002e0090000000e800200798002e0090006c
:102d4400e20f5000eaff34001e00be0032002000f3
:102d5400030020001ff6070020408800314088004f
:102d64000080fa00000006000a00fa0040079800fc
:102d7400104080000000e8001040880011408000ee
:102d8400f0072000808f5000010036000228ef0079
:102d9400104080008000400000c6210000804000f8
:102da400ce009000010878006000b800008fbe00db
:102db4000000eb002007980013003700114080004a
:102dc4002e00900000805000010820008080400008
:102dd400f007200000806000300798003e0090005b
:102de4008000400000c621000080400010007800f0
:102df4008000eb001e0f40005e9748002e009000fc
:102e04000000e800200798002e009000e20f500018
:102e1400eaff34001e00be00320020000300200040
:102e2400ecf5070040408800514088000080fa001b
:042e34000000060094
:020000040000fa
:020000040001f9
:0457f8000ff90000a5
:020000040000fa
:020000040001f9
:0457fc007f3f0000eb
:00000001FF
